:2000000000802020FB770000FB320000FB3200000000000000000000000000000000000054
:20002000000000000000000000000000FB3200000000000000000000FB320000FB32000039
:20004000FB320000255F0000FB320000FB320000FB320000FB320000FB320000FB320000E1
:2000600000000000FB320000FB3200000000000000000000FB320000FB3200001D6E000041
:200080003D730000FB320000FB320000FB320000FB320000FB3200000000000000000000CF
:2000A000FB320000FB3200000000000000000000FB32000000000000FB320000FB3200005F
:2000C000F0B5FFB08EB00593069206468C910568284607F000FB00218B912A18C84304900A
:2000E000929802900392954200D3B7E087A80022027387920498899088920F4628780028A3
:2001000000D1AEE0252808D06C1C346028780699059A90477F1C2546F0E7681C30608B9777
:2001200087AC2046314600F0A3F88CAA2046314600F0BAF8306801787A290BD068290CD073
:200140006A2911D06C2912D074291AD04C291FD1802118E00121090315E042788799682AA0
:200160006CD10122520208E00121C9020BE0427887996C2A65D10122120211438791801C26
:2001800005E001214903879A0A438792401C017887AA1173451C356073291ED06E2929D1EA
:2001A000879832490840202850D0402834D001214A03904230D04A0290424BD0CA02904271
:2001C00005D00A03904227D00902884224D18C9802C8FA170F604A6021E087A800784006A4
:2001E0001FD40598009087A88CAA8BAB069900F01EF91EE007AC87A98CAA204600F06EF9CA
:20020000024620460699029B9847411C049900D0C1198B91039A0EE08C9802C80F608C9051
:2002200007E00598009087A88CAA8BAB069900F096F8039A8B99481C12D054E7401C202212
:2002400001E0401C402211438791A0E78C9802C80F80E4E78C9802C80F70E0E70F4600E05B
:20026000049F38467FB00EB0F0BDC046603F00000A681378202B09D0232B09D0302B09D0A2
:200280002D2B09D02B2B0ED1022306E0042304E0082302E0102300E00123521C0A6002685C
:2002A0001A430260E4E77047FEB516460D4604460F6839782A2910D13068011D3160006846
:2002C0006060002805D54042606020680121014321602868471C2F6015E0684630390929EB
:2002E00007D87A1C2A6039780170401C79781746F4E70021017068460078002803D06846F7
:2003000006F0AEFD606038782E2827D1781C28607A782A2A08D13068011D31600068A06094
:200320002868401C2860FEBDB91C6846303A092A08D84A1E2960127802704B1C401C0A785C
:200340001946F3E70021017068460078002804D0684606F085FDA060FEBDA160FEBDF0B56E
:2003600087B01E4613681C1D14601F680C9D002F3FD00391069505908468002C04D438461A
:2003800007F09AF9844203D3384607F095F9044605984268A242114600DC214630680191FB
:2003A0000818029630600494A242154610DD05980078C0070CD101980499441A0026A642D6
:2003C00006DA20200399069A90472A46761CF6E70024039E059804998C420DDA3868010AAC
:2003E0001BD1C0B23146069A90472A46641C3F1DF0E70020A84718E0049DAA42069F14DD64
:200400000078C00711D00198441B0025A5420CDA20203146B8476D1CF8E70020C0430299F6
:20042000086007F0CDF95821016007B0F0BDF0B585B00C4606461068011D116000680A9DCB
:200440000490002844D00393B768002F04D4049807F041F9874203D3049807F03CF907468F
:2004600002967268BA42114600DC3946039B18680091081818600192BA420FDD0298007888
:20048000C0070BD10098C01B039000260398864204DA20202146A847761CF7E70026BE4220
:2004A00005DA0498805D2146A847761CF7E70198B84210DD02980078C0070CD00098C61B70
:2004C0000027B74207DA20202146A8477F1CF8E700202146A84705B0F0BDC046F0B58BB04D
:2004E00003920E4604464868049000250995FF270597FE37202220463946009207F06EF8B5
:2005000002950197E5557F208000089421180A91307B0246613A172A079627D80123934081
:20052000C44D2B4208D009A90AAA3046039B00F089F90025069589E071252B4225D1022A2B
:2005400014D1039B1868021D1A600068087031680222914331600599FC31089A51180A918C
:20056000C0B241424141069100256FE00146453903290AD3252800D1E7E0412805D0582888
:2005800002990D460691CED061E00598FA30039B1968C91D072291430A4608321A60327B7D
:2005A0001346613B16461A2B00D2203E089C2018069011C9E5436D006D0D07D19E4D2540F2
:2005C000054303D096420FD061200EE00125EF072146B943994D6940039001430BD1964241
:2005E00000D1B9E06E23B8E0412006998870964224D06E2023E0002C214601DA674039467F
:20060000E50F413A00240694062A079E00D8ABE0062B03981AD89A0001A39A589746C046A4
:20062000910700004D0600004D0600004D060000F3070000FD070000070800004E20079E09
:20064000C87048700A91002006900225307B01466F39092949D801228A4079490A4244D036
:20066000049A089CA5183078C0070A9808D10199089C6118091A7268914201DC691A4C1C42
:20068000411C0598430000262046324606F0E0FE0A900699002902D00670401C0A90A842BB
:2006A00006D8291A491C401E202206F097FF2E7007980078C00605D40898211A202206F021
:2006C0008DFF3BE00898844238D00898211A3026324606F083FF09980299084313D10798DA
:2006E000007840070FD4089813E05828B8D0002D71D0012D049AB4D1012009903068022189
:20070000014002916FE02078089908702670641C481C0799097B41290DD0582905D0612940
:2007200009D0782901D0702908D1079A1278120701D4612902D1617841706670089806F090
:20074000CAFF069940180BB0F0BD002008994870252008700120F6E74E23069D0398AB7073
:2007600096421AD0662319E0920002A39A5803989746C046910700004D0600004D06000050
:200780004D060000F3070000FD070000070800000AAB324601F062FF58E74623EB7096429F
:2007A00001D0692200E04922079E6A703F21C900089A51180A91002221460692134605F0D5
:2007C0004DFF002803D02D20287004253EE72B20287003253AE7306802210140099A002AAA
:2007E00016D00291049A0A982D210170401E0A9037E70AAB324603F033FC27E70AAB3246E1
:2008000006F0F4F822E70AAB324602F031F91DE70029049A05D1400700D422E70A980099A4
:20082000E3E70A982B210170401E0A900120029017E7C04608C19000FFFF0F000000F07F0B
:2008400043020000F8B514460F4605468068002804D4286810218843286001E00120A860A6
:20086000287B1026582808D0782806D0702804D06F2801D1082600E00A262846194600F001
:2008800055F8AA68002A09D102460A4306D12878000749D52B7B0020024612E02B7B642B8F
:2008A00003D1642300290BD504E0692B08D1002906D5692301223A60002240428A4100E0E7
:2008C0000A4600941146324600F0B0F8A968884206DA21684A1E226030220A70401CF5E79B
:2008E000287B582803D0782801D070280FD1297809070CD521684A1E2260702800D1782013
:2009000008702068411E216030210170287B6F280AD12878000707D520684178302903D030
:20092000411E216030210170F8BDC04610B5037B702B05D10868021D0A60006800226FE0D4
:200940000068384A024001204403A24222D0402A20D00402A2422FD04402A2424CD0C402DE
:20096000A24229D00403A24214D01C46643C202A12D10022142C06D8A0402B4C204204D1CE
:200980002124204212D1582B49D10868031D0B60008845E01C46643C0022142C25D8A04047
:2009A000214C204223D1212420421ED00868021D0A600068C21733E01A46643A142A06D878
:2009C0009040194A104206D12122104203D10020582B024624D10868C21D072082431046E1
:2009E00008300860106852681AE0582B17D10868031D0B60006813E01C46643C0022142C06
:200A000006D8A040084C204204D121242042CDD1582B04D10868031D0B60007800E0104647
:200A2000114610BD603F000000081200F0B585B002920746582B01D0194800E01748019099
:200A4000384608430A98039005D1039B1868421E1A6030220270029D3846084316D038463A
:200A60002A4600F01FF8049707460E4603990C68601E0860384631462A4606F00DFD3146F1
:200A8000049A101A019A105C2070E5E70398006806F021FE401E05B0F0BDC046C586000002
:200AA000B486000080B5102A06D0082A09D1C0084A078018C90880BD00090A078018090928
:200AC00080BD002904D1114606F06EFA002180BD002306F0C5FD80BDF0B59DB01591139075
:200AE00024200B4E355C002D02D0002004F004FB307A032811D8FA22800001A1085887468D
:200B0000290B0000150B00001F0B0000250B0000380A20207D20820006E0002204E07D20FD
:200B2000C20001E07D2002010D92092030560122D4430328234609D88000F17C002901D08E
:200B4000FD4900E0FD4908180068831EF07A401EC1B20529149212950E930C9416D83F21BB
:200B60000840414241410A911F22C24001210A4006920F22C2400A4007920722C2400A40BB
:200B800008920322C2400A40099205E000200990089007900A900690139D159F307C119001
:200BA000B07A1090F0890F90002428463946224600F058FD002807D028463946224600F051
:200BC00051FD002800D0CAE219A816A90122049200F048FD0028129D119F07D019A816A9D7
:200BE000012200F03FFD002800D0BAE2706800780D2104221CAB01F0F3FA002800D0B0E041
:200C00001CA9C878032203460B92134002938A78D7081C2217404978C908114003079B0FCF
:200C2000C91803911C99C90811408006800F41180024002905942ED04E1E0AD032460B98B5
:200C40000240881E002A06D0012A06D1BD4C06460DE0BD4C1FE0BC4C09E0022A01D0BB4C6B
:200C600000E0BB4C022A01D00E1F00E0CE1E032811D3B84D2046294604F08CFF294604F0CC
:200C800089FF294604F086FF294604F083FF0446361F3006EED1029838180290039A002A28
:200CA000059F2ED0561E0AD031460B980140901E002906D0012906D1A24F06460DE0A24F20
:200CC0001FE0A14F09E0022901D0A04F00E0A04F022901D0161F00E0D61E032811D39D4D84
:200CE0003846294604F056FF294604F053FF294604F050FF294604F04DFF0746361F3006D0
:200D0000EED1029B002B2CD05E1E09D00B9A3240991E002A06D0012A06D18A480E460DE018
:200D200089481DE0884809E0022A01D0874800E08748022A01D01E1F00E0DE1E03290FD38D
:200D4000844D294604F026FF294604F023FF294604F020FF294604F01DFF361F3106F0D167
:200D60000590159800681699401AC1174018484006F078F96F21C9050B9104F00BFF06465D
:200D800000252046294605F091FC002810D13046214604F0C9FF704904F047F90124E1073B
:200DA00088436E4905F0AAFC00280ED025460CE06B49304605F084FC04466A49304605F0B2
:200DC0009DFC05462543681E8541159840681799401AC1174018484006F044F90B9904F099
:200DE000D9FE04460021384605F060FC002810D12046394604F098FF574904F016F90121A4
:200E0000C9078843554905F079FC002812D0AE1C11E05449204605F071FCAE1C0028374696
:200E200000D12F464E49204605F04AFC002802D13E4600E02E46159880681899401AC117E9
:200E40004018484006F00EF90B9904F0A3FE04460021059D2846159105F028FC002810D139
:200E60002046294604F060FF3B4904F0DEF80121C9078843394905F041FC002814D0351D2D
:200E800013E03849204605F039FC351D00282F4600D135463249204605F012FC002800D136
:200EA0002F46DD4E3D4601E03546DB4E706800780D2103241CAB224601F092F9002801D041
:200EC000072747E10394139800681999401AC1174018484006F0C6F80B9904F05BFE07465C
:200EE0001CA883781F24467826400278224002950ED00593551E01971CD02B46039803409D
:200F0000901E002B1CD0012B2ED1F649054635E0F94938461D4605F0D3FB3A460746F7494F
:200F2000104605F0EBFB2A463843411E88411590139848E0EA4935E0C0850000B085000033
:200F4000E7491BE0ADFFB33E7B14AE3E5E72C03E631EBA3E1D5A843F000080BF0AD7233E4C
:200F60009A99993E3333733F022B01D0DF4900E0DD49022B01D0151F00E0D51E032811D30F
:200F8000DB4F0846394604F005FE394604F002FE394604F0FFFD394604F0FCFD01462D1F82
:200FA0002806EED1019804F0BFFECC4904F03DF8049DE9078843CF4905F0A0FB00281398E5
:200FC000059A00D015952240059240681A99401AC1174018484006F045F80B9904F0DAFDF0
:200FE0000546002E0DD0741E1DD0224603980240B01E002A1AD0012A1BD1BA490446159EDE
:2010000023E0BE49284605F079FB15998E1C0028344600D10C46B849284605F051FB0028FA
:2010200036D1264634E0AE49159E22E0AC49159E0BE0022A01D0AD4900E0AB49022A159A48
:2010400001D0341F00E0F41E1646032811D3A84F0846394604F09EFD394604F09BFD394632
:2010600004F098FD394604F095FD0146241F2006EED1284604F058FE984903F0D6FF0121F0
:20108000C90788439B4905F039FB002800D0B61C1398039C80681B99401AC11740184840E6
:2010A00005F0E0FF0B9904F075FD0546059A002A0AD0571E19D03C40901E002C17D0012C9C
:2010C00017D1884907461EE08C49284605F016FB371D00283C4600D134468749284605F047
:2010E000EFFA002834D1274632E07D491FE07C4909E0022C01D07D4900E07B49022C01D080
:20110000171F00E0D71E032811D3794C0846214604F040FD214604F03DFD214604F03AFDE3
:20112000214604F037FD01463F1F3806EED1284604F0FAFD694903F078FF0121C90788434C
:201140006C4905F0DBFA002801D0371D00E03746614E029D7C427C41002D00D1A41C129D30
:20116000119FFF2030746648F081149A32730C98401CB06063480D9B834208DCFA2B10D079
:201180007D208000834226D11CA808210EE07D20C1008B4208D0000183421CD11CA81821E8
:2011A00004E01CA8002101E01CA81021017005CE8179107801221CAB083E01F041F9002847
:2011C00003D11CA80078C0083072B07A0028149A0E9801D16FE00E98D041072838D8800058
:2011E00001A108588746C0460912000011120000511200001D120000511200005112000084
:2012000051120000271200001CA8002202700EE01CA8082101700AE0380A20201CA810212D
:201220000170022203E01CA8182101700322707A90420DD005CEC179107801221CAB083E45
:2012400001F0FEF8002803D11CA80078C0087072B07A00282FD00A98002802D01CA90120F2
:2012600019E00998002802D01CA9022013E00898002802D01CA903200DE00798002802D0F8
:201280001CA9042007E00698002802D01CA9052001E01CA906200870F17A81420BD005CEDC
:2012A0008178107801221CAB083E01F0C9F8002801D11C98F0720F9803F038FB109803F053
:2012C000D7FD384604F0F0FA002D02D0012003F013FF20461DB0F0BD380A2020000080BF18
:2012E0000000C8413333D141BDD2DA419AE3E44154E3853F295C0F3E000020410000D242DF
:20130000FFFF0000E7030000F0B587B00F4605460120C1073E468E43AF4886420BD3CF4877
:201320003018284300D195E006F04AFA21210160CB4900254DE1A948864212D8C44AC54BAF
:201340002846394601F015FF0022A34B05F0A4F9002800D18BE0C048864200D387E039460C
:2013600037E10191069700249B4920462A46334601F0FAFE9A4B224603F04AFB05460F46C1
:20138000984A994B03F044FB984A994B01F0F1FE06F0F2F9974A984B01F0EBFE06F0ECF955
:2013A000964A974B01F0E5FE06F0E6F9954A964B01F0DFFE06F0E0F9944A954B01F0D9FEDF
:2013C00006F0DAF904900591924A934B06F010FA924A934B01F0CDFE06F0CEF9914A924B75
:2013E00001F0C7FE06F0C8F9904A914B01F0C1FE06F0C2F92246784B01F0BBFE029003916E
:201400002846394602F0FEF802460C468948864200D288E0049805991546029A039B02F0C9
:20142000ADFE02460B462846214603F0F1FA2A46234601F09EFE02460B4601F09AFE7E4A65
:20144000814B01F096FE02460B467D487F4901F08BFEB8E0784A794B06F0CAF904460E4626
:20146000774A7A4B06F0C4F92246334657E0284639462A463B4603F0CBFA064606970F4647
:20148000584A594B03F0C4FA584A594B01F071FE06F05AF9574A584B01F06BFE06F054F985
:2014A000564A574B01F065FE06F04EF9554A564B01F05FFE06F048F9544A554B01F059FE0E
:2014C00006F042F904460591524A534B3046394603F09EFA514A524B01F04BFE06F034F9AC
:2014E000504A514B01F045FE06F02EF94F4A504B01F03FFE06F028F90022374B01F039FE20
:2015000002460B462046059902F038FE02460B462846069C214603F07BFA2A46234601F0C4
:2015200028FE054655E0049805991646029A039B02F024FE059004910096304606F034F9C8
:20154000059A049B03F064FA059004910026304621463246234603F05BFA02460B4628469F
:20156000394601F001FE05460F46009806F01CF902460B462846394602F000FE02460B46AA
:2015800001F0F7FD02460B462B482C4901F0ECFD02460B460598049901F0E6FD05460F46C4
:2015A000304606F001F902460B46254C254E2046314601F0D9FD2A463B4601F0D5FD224688
:2015C000334601F0D6FD05460698002801DC01984140284607B0F0BD0000F03FFFFFDF3FA9
:2015E0000000E03F09F7FD0DE13D023F88B20175E0EF493F3B8F68B52882A4BF5544880E39
:2016000055C1C93F7D6FEB0312D6D4BF555555555555C53F82922EB1C5B8B33F59018D1BF1
:201620006C06E6BFC88A599CE52A00404B2D8A1C273A03C03333EF3F075C143326A6913CE4
:20164000182D4454FB21E93F26A691BCFB21F93F9C7500883CE4377E0000503E000010C030
:201660000000F87FF0B589B015460C46074606AB00265E7001201870C14905C9817C107870
:20168000022200F0DDFEF143002800D0C8E032462E4605910494C820144605F079FB06AB11
:2016A0001C70B74D05CDC17B10780122083D00F0C7FE002800D0B2E0039405CD41791078B2
:2016C000012206AB083D00F0BBFE002800D0A6E005CD817C1078012206AB083D00F0B0FEBC
:2016E000002800D09BE005CDC17D1078012206AB083D00F0A5FE002800D090E005CD01797F
:201700001078012206AB083D00F09AFE002800D085E006AB0C20187005CD017910780122E7
:20172000083D00F08DFE002879D10F2005F030FBA86A407A06AB187005CD817810780122AD
:20174000083D00F07DFE002869D1A86A007A06AB187005CD417810780122083D00F070FED9
:2017600000285CD1A86A807A3146002E01D0E021084306AB187005CD81791078012200F0A6
:201780005FFE00284BD1002E06D01F20C1437C48806AC07A084300E0182006AB187078491C
:2017A00005C9C1791078012200F04AFE002836D1002E02D0C82005F0EBFA06AB40201870B4
:2017C0006F4905C901791078012200F039FE002825D106AB78201870694905C94179107886
:2017E000012200F02DFE002819D1322005F0D0FA06AB03981870624905C9417910780122D6
:20180000029200F01DFE002809D15D4905C9817A1078022206AB00F0E3FC002803D00599F3
:20182000084609B0F0BD3846039939607960B960049801604160816006A8008840BA514906
:201840004143C80CC0B20546002833D04C4905C9C17A10780C2206AB00F0C2FC0028DED1BE
:201860000698C0BA049B1968081818600798C0BA996808189860586806A94A88D2BA801801
:2018800058600898C0BA3B467A681018064678604889C0BABA681018B860C988C9BA3A68A4
:2018A00051180C4639600399491C0391C9B2A942CCD303E0384650CF3868083F010CC217ED
:2018C0001204511800048322039200230593059B05F0BCFE2A460195059D2B4605F0B6FE7F
:2018E0000097B860300CF117090409183004039F3A462B4605F0AAFE019A2B462E4605F0EE
:20190000A5FE009D6860200CE1170904091820043A46334605F09AFE019C2246334605F050
:2019200095FE2860049D2868C10EC2175201511840012246334605F089FE28606868C10E32
:20194000C2175201511840012246334605F07EFE6860A868C10EC21752015118400122467A
:201960003546334605F072FE002802DC0299090400E00549081804998860294650E7C046E1
:20198000380A2020ABAA00000000FFFFF0B587B0A1490878401C0870C0B20A2800D228E1D9
:2019A0009E4800689E490C68201AC1174018484005F058FB9B4904F0EDF89B4E314604F033
:2019C000E9F80125EB0799490F680021984A525E002A0594039300D55840964A0691545E13
:2019E00095490490086095480068381AC1174018484005F037FB8B4904F0CCF8314604F0A0
:201A0000C9F80646002C01D5039846400699824A824B059C8A48066011701C608748076052
:201A200088480078002800D1E3E02B036903E80305906C047E4D2888834A854F002804D1FF
:201A40007C480088002800D1D5E00194029303912846069D405F05F005FB049903F0E0FABF
:201A60007C49009004F096F87B4C216803F0DDFA074620606F48405F05F0F4FA314603F005
:201A8000CFFA0490734904F085F8744D296803F0CCFA04462860724E3846314604F02EFE0A
:201AA000002806D16F4E3846314604F009FE002802D0694806603746694E2046314604F064
:201AC0001DFE002806D1674E2046314604F0F8FD002801D02E603446069D5548405F05F09C
:201AE000C1FA06466049009804F054F8314603F09CFA06465D4938460F4604F04BF83146EB
:201B000003F093FA05F022FB06464A48405F05F0A9FA05460498544904F03CF8294603F010
:201B200084FA05462046394604F034F8294603F07CFA05F00BFB05464D48854200DC054636
:201B40007D21C9008D42424F3F4A019C18DA854219DD8D421ADA86421BDD8E421CDA8642D8
:201B60001DDD8E4200DB0E4630B2384B01281ADB194610392246059C0C601446324A17E0FF
:201B80000D468542E5DC05468D42E4DB0D468642E3DC06468E42E2DB0E468642E1DC0646B9
:201BA0008E42E0DAE0E705991960310400D0103B1C602CB2012C04DB11461039029B0B605F
:201BC00004E002991160290400D0103A03991160C0133118414089B20122384605F05CFDFA
:201BE000E013291841408CB202223846214605F053FD07B0F0BD1548059D05600460136005
:201C00001648069C046014480460116001223846214605F041FDE7E7380B2020A80A2020B1
:201C2000E00A202014EEF43D0000C842F00A20202E0B2020320B2020E80A2020AC0A2020E5
:201C4000F80A20203C0B2020A0120A40A0320A40000086400AD7233CE40A2020F40A202031
:201C600000001644000016C43333B33ECDCC4C3F18FCFFFFF0B585B005460122D0070C4632
:201C800084430E468C4884420DD3AE48844203D8002D44D0844242D1284631462A46334630
:201CA00001F067FADFE085488442019114D88B4A8B4B2846314601F05CFA0027854B3A46B4
:201CC00004F0EAFCFA43012100280491009267D0A00DF92864D2C8E07948844223D87E4851
:201CE00084423BD8012083070027284621463A4601F03FFA06460491284621462A4623462B
:201D000001F037FA704B3A4601F033FA3246049B02F034FA05460E460497009740E00029F7
:201D200030DC8A4E2FE0674884422ED80026674B2846214605F05FFD03900F46644B284632
:201D40002146324602F064FE624B049605F053FD05F01CFD05460E46022020E0009200263D
:201D6000594B2846214605F046FD03900F46594B28462146049605F03EFD05F007FD054643
:201D80000E460DE0704E724D6FE000204E4904902A46234602F0F2F905460E4603200090E3
:201DA000284631462A46334602F032FE0390029102460B4602F02CFE07460C46494A4A4B91
:201DC00002F026FE494A4A4B01F0D3F905F0CAFC484A494B01F0CDF905F0C4FC474A484B97
:201DE00001F0C7F905F0BEFC464A474B01F0C1F905F0B8FC454A464B01F0BBF902460B46AF
:201E00000398029902F004FE02900391414A424B3846214602F0FCFD404A414B01F0A9F9E1
:201E200005F0A0FC3F4A404B01F0A3F905F09AFC3E4A3F4B01F09DF905F094FC3D4A3E4BB7
:201E400001F097F905F08EFC049A002A11D0029A039B01F08EF905F094FC02460B4628469B
:201E6000314601F081F905460E462846314605B0F0BD029A039B01F07CF905F082FC009AED
:201E8000D4002E4B1A591B195B6801F06DF92A46334601F069F902460B462949085909196A
:201EA000496801F061F905460E4601980028DCD50120C0074640D8E700001044FFFFDB3F7C
:201EC000FFFFF23FFF7F03400000F0BF0000F8BF0000F83F0000F03FFFFFE53F9C7500888B
:201EE0003CE4377E11DA22E33AAD903FEB0D76244B7BA93F513DD0A0660DB13F6E204CC527
:201F0000CD45B73FFF8300922449C23F0D5555555555D53F2F6C6A2C44B4A2BF9AFDDE521C
:201F20002DDEADBF6D9A74AFF2B0B3BF711623FEC671BCBFC4EB98999999C9BF1086000062
:201F4000F08500000000F07FFB21F93FFB21F9BF182D4454F0B58DB0044607AF0920F87025
:201F6000E320B870CA207870022002903870682004213A4604F004FBA32179723972F97124
:201F8000402323405C20C043002B024601D03D22D243FA70002B024601D03722D243BA70FE
:201FA0003F250593002B024600D0EA4301957A703970012635022A4680322240014601D092
:201FC0003921C943B971002A014601D03321C94379710692002A01D03B20C043387174488F
:201FE0000F300A213A4604F0CBFA0320272120400490039101D0202000E0C84338706C48F3
:202000001E3031463A4604F0BBFA9720C000A10606D40AAAC721117268490B91684905E0D8
:202020000AAA5D21117263490B9163490A91092104F0A6FA0698002821D0254001D064202D
:2020400000E06F20C04307AAD070002D01D0492000E04B20C0439070002D01D0742000E0F6
:202060007F20C0435070002D01D04D2000E04F20C04310704E480A30042104F081FA8B20B2
:202080000001E10704D107AAD8211170012149E007AAF82111700126314604F071FA07209D
:2020A000FA2101F01BFC0AAA019810702920C7003846314604F064FA0AAA00251570F81D66
:2020C000314604F05DFA0AAA14205070157038469630029E314604F053FA0AAA642050707D
:2020E000157038469230314604F04AFA0AAA9020D070F92090708E205070157038461430FA
:20210000042104F03DFA0AAA08205070157038461230314604F034FA0AAA567015701037AF
:202120003846314604F02CFA059D0399A00702D52620C04300E0C84307AA107021480121E4
:2021400004F01EFA600701D4204800E01E480A9004210AAA164804F013FA01F065FCE0067F
:2021600001D41C4800E01A480A901148801D04210AAA04F005FA01F057FC069A0820204319
:2021800015490880002D00D00625002A00D0AD1D1420044201D0102005430498002800D016
:2021A0002D1D01F041FC0D48057000200DB0F0BD980A0000B4980D35B8AAB38DB088C3C5C1
:2021C000B8AAAAAA3D070000C0C2C4C68B8B8B8B20283038A3A3A3A3300B20203A0B202091
:2021E000F0B589B0029300920891064690498120069008608F4D01272F602F642F600224A2
:202200002C60384604F04EFE2F61384604F04AFE2C617000864E0790C0B201F06FF82C616B
:2022200004972F60844830602C60844F3868C0070FD02E460A25052004F034FE6D1E38685A
:20224000C00701D02806F6D128063546784E00D19FE02C610698306001262E602E64089890
:2022600001F04CF82C6105962E60714E7248306001942C603868C0070CD00A24052004F0BF
:2022800011FE641E3868C00701D02006F6D1200600D193E0314602262E6106980860059C49
:2022A0002C602C6408602C602C642C602E60204604F0F8FD2C61204604F0F4FD2E6107980F
:2022C0002043C0B201F01AF82E612C605A485849086008962E603868C0070DD00A2405209D
:2022E00004F0E0FD641E3868C00701D02006F6D12006059C00D186E0089F2F614C4E0698F9
:2023000030602C602C64002100980228039123D3461E0096029C059F01F02CFC2070444833
:20232000069901602F602F64089828612F610520079004F0B7FD2F6108982860079804F013
:20234000B1FD089828612F60761E641C002EE3D1374E059C0099089F009101F00BFC029997
:20236000009A8854069830602C602C642F612C613E460527384604F095FD2C602E60384634
:2023800004F090FD2E612A4E2C600698049C019F28E0069830602746049C2C602C642F615C
:2023A0002C612F600526304604F07CFD2C6030461F4E04F077FD0698039413E006983060C6
:2023C000059C2C602C64019F2F612C612F600520089004F067FD2C60089804F063FD0397C5
:2023E0000698049C30602C602C642F612C612F600526304604F056FD2C60304604F052FD1A
:20240000039809B0F0BD0A4E069830602C602C64089828612C6128600527384604F042FDFE
:202420002C60384604F03EFD03200390ADE7C0460480424090120A408100040080130A40BF
:20244000F0B587B003930492029106907F48812707607F4C01262660266426600225256041
:20246000304604F01FFD2661304604F01BFD256106984006000E00F041FF2A467349256173
:202480002660744808602560734D2868C007059701920ED00A24052004F004FD641E28688F
:2024A000C00701D02006F6D12006694C6749019A66D022610F600127276027640298164619
:2024C00000F01CFF3A466149266127606148086026602868C007264606970DD00A24052092
:2024E00004F0E0FC641E2868C00701D02006F6D120065649069A62D002243461059808601E
:20250000326032640498002828D000270DE030064F4E4E49069A74D0346105980860326049
:2025200032647F1C0498874218D00398C05D00F0E5FE069A454934613260464808603460B3
:202540002868C007E8D00A26052004F0ABFC761E2868C007DBD03006F6D1D8E70598086025
:202560003260326434613261346005242046154604F098FC3560204604F094FC002661E01F
:202580000F602660266422612661226005252846174604F087FC2660284604F083FC0598C0
:2025A0002A49086026602664276126612760284604F078FC2660284604F074FC42E00598AD
:2025C000086032603264019D35613261356005273846144604F066FC3460384604F062FC51
:2025E00005981A49086034603464356134613560384604F057FC3460384604F053FC2E46F9
:2026000020E0059808603260326434613261346005200490154604F045FC3560049804F063
:2026200041FC05980949086035603564346135613460049C204604F035FC3560204604F0FF
:2026400031FCFE1CF0B207B0F0BDC0460480424090120A408100040080130A40F0B5A3B0DB
:20266000029304920E460746002408947A4D22462B4604F007F8002813D10024774D3846C9
:20268000314622462B4603F0F3FF002809D1002238463146134603F0D7FF00283C463546A5
:2026A00007D108AA2046294604F0C0F80898401E089009AE302001903070049F387B412882
:2026C00001D0684800E0664807900022204629460692134603F0C2FF01210028009101D00C
:2026E000C807454020462946069A134603F0ACFFBF68711C059100280DD122AA2046294629
:2027000004F094F801202299421A2046294602F01BFC04460D462046294604F05FFA064618
:20272000059904F037F90390304604F0F1FD04F0FEFF04460D467F1C20D305980399461839
:20274000049F002220462946134603F07DFF002849D1002220462946434B02F059F90446C2
:202760000D4604F03BFA0799095C317004F0D0FD04F0DDFF04460D46761CE2E709A8039961
:202780004618002F15D0002220462946364B02F03FF904460D4604F021FA0799095C717093
:2027A00004F0B6FD04F0C3FF04460D46761C7F1EE7E73178079C204604F034FF001B0828FE
:2027C000049F10DB741E079D2178284604F02AFF401B0E2803DD06982070641EF4E7079975
:2027E00040184078207006983070387B412801D0702100E05021029C039D059E0898224643
:2028000004F09CF9BA68501C04D1304604F063FF421EBA6030462946234604F035FDB868F2
:202820000028009A02D138680007C20F30462946234603F00DFE2068411E2160397B4129B9
:2028400001D0782100E0582101702068411E21600199017023B0F0BD0000F07F0000F0FFF3
:20286000C5860000B486000000003040F0B589B00025EF43282800D9F5E0064600280BD0E1
:2028800001972324794A105D01283BD0907C1346002818D0322117E02324744D285D002881
:2028A00000D1D1E0A87C411E02468A41510003AA11702221695C002900D1B9E0002800D1ED
:2028C000B2E07D20B1E03021009504AA117022211D46595C002907D0002801D04D2000E082
:2028E0004F20C04304A9087005CD017D1078012704AB3A46083DFFF7A3FD2A460028009D02
:2029000000D1175502A820210170012E1CD102A800214170907A002813D005A8062101702C
:20292000D07A06280DD010681446526881781078012205ABFFF784FD2246002801D10598EC
:20294000D0720720019F59E0052E1CD802A801214170907A002813D006A806210170D07AEC
:2029600006280DD010681446526881781078012206ABFFF765FD2246002801D10698D072D1
:202980004720019F3AE0142E1CD802A802214170907A0028019F13D007A805210170D07A1D
:2029A00005280DD010681446526881781078012207ABFFF745FD2246002801D10798D072B0
:2029C00087201BE002A803214170907A0028019F13D008A804210170D07A04280DD0106810
:2029E0001446526881781078012208ABFFF728FD2246002801D10898D072C72002AB5870B1
:202A0000106814465268817C10780222FFF718FD002828D10120207525730820A07228465F
:202A200002F042FF2F461EE07F20C04303A9087005CD017D1078012203AB083DFFF700FD49
:202A4000002801D1002028550720000202AB188005CD817C10780222083DFFF7F1FC0028A6
:202A600001D100272F75384609B0F0BD380A2020F0B5A1B0019317460D4604469668002EA3
:202A800003D0002E03D5062600E00126BE6008A8302105910170002220462946079213461B
:202AA00003F0DCFD012100280297039101D0C8074540624F204629465F4A3B4603F0ECFD22
:202AC00000280BD00022204629465E4B01F056FB04460D460798401C0790EBE7029F00224D
:202AE000204629460692134603F0AEFD002813D1002220462946524B03F0B0FD00280BD02F
:202B00000022204629464F4B01F082FF04460D460798401E0790E2E72046294604F05EF899
:202B200008A9491C049103F035FF03463146B04204DD491C08AA505C56181FE008A8C61872
:202B4000C8430093C7182046294604F047F804F0DFFB02460B462046294600F005FB0022A2
:202B6000384B01F055FF04460D4604F037F830307070761C7F1CE6D3029F009BC0B235289C
:202B8000069D0DD3701E0178491C0170C9B23A2903D330210170401EF5E708A9884203D0D7
:202BA00007981C18357007E0701E0021017007981818441C08A804900220C0438442019E99
:202BC00002DBB868844207DD397B601E891EC9B2324603F0B3FF0124049804F07CFD401E51
:202BE0000399A0421ADB0028059A01D4049A125C1346303B5D1EAB41C9431943C90705D181
:202C00003978090702D40025039905E031684B1E33600A7001250021401EE2E73868082230
:202C200002402A43501E824104982146334603F00FFC21B0F0BDC0460000C0FFFFFFDF41D9
:202C40000000F03F00002440F0B597B014460E46054610A8019011A8009014A812A90CAA3D
:202C600016AB00F0D5F8002802D0012017B0F0BD11A80088C00502D4022017B0F0BD0C9831
:202C800004F0F0F961210894CC05214602F082FF0A900D9804F0E6F9214602F07BFF07465C
:202CA00009900E9804F0DEF9214602F073FF03900F9804F0D7F9214602F06CFF04460B9098
:202CC00003208107384602F065FF0595054606900A98014602F0A9F90490039F394602F0D6
:202CE00059FF079606462846214602F053FF314602F09BF904F078F9FEF706FB424A434B08
:202D000001F086FE03F084F905990860384639463D4602F08AF906460498099C214602F0ED
:202D200039FF074630460B9902F034FF394602F07CF904F059F905900F462846314602F0E2
:202D400029FF06460698214602F024FF314602F067F97F21C90502F068F904F045F90246E1
:202D60000B460598394600F02FF9274A274B01F04FFE03F04DF9079908600A9F38460B99A1
:202D800002F008FF0446099E3046294602F002FF214602F04AF9014602F047F904F024F94B
:202DA000044607913046314602F0F4FE06463846394602F0EFFE314602F037F906462846E5
:202DC000294602F0E7FE0146304602F029F906460B98014602F0DEFE0146304602F020F910
:202DE00004F002F902460B462046079900F0ECF8054A064B01F00CFE03F00AF908990860D7
:202E0000002017B0F0BDC0466666666666A64C40F0B58DB0039315460C460490129F002658
:202E20003E806348007805A9139A02F0FDFBF143002800D0B8E002975E4803881420034265
:202E4000049F4ED0009101930598000605AA517809040F18907800023818D378C018286038
:202E60000698000653791B041B18907900021818D6798019686007980006567A36043618A8
:202E8000907A00023018D17A4018A86008980006517B09040818917B09024118D27B891836
:202EA000E960191449433A14524351183214524389180014404308183F4940183F4988425F
:202EC00006D800F0B1FD00200299088000996BE001200002029A1188014311801026019B50
:202EE000049F580602D43146029C20E00120304305A9085C8A5D12021018208003203043E7
:202F0000085C022232438A5C12021018608005203043085C04223243895C09020818A080EB
:202F2000029C2088082101432180062131430120000280300342039E17D005A842181D4698
:202F40005378405C0002C0183880D07893781B0218182B4678805079127912021018B880A7
:202F60002088702202432280891D980718D005A84518EC786878C1070AD011490A68002A1D
:202F800006D007202040411CA006400F90476878000705D50B480168002901D0A0098847BC
:202FA000304602F002FF002108460DB0F0BDC0463A0B2020300B2020FFFFFFEEFEFFFFFDE5
:202FC000D00A2020D40A2020F0B585B00646501E1446844154481F4607403C430392049610
:202FE000524DAC4209D80840741E02933546A54105434E4B9D42029B07D90498039A00F02D
:20300000B8F80490049805B0F0BD494C1C1914431ED0CD0FDC0F64000195631906431BD0EE
:203020003A4320D0414A97421BD1904221D14949414804909B0001A2D258974605300000E6
:203040004D300000CB300000CF3000004549D9E70498FEF70FFED4E7022BD3D3032B1BD165
:203060001CE090421DD10120C00701403148091815E0002104919B0001A2D2589746C046DB
:203080000530000091300000993000009D3000000120C1070020B4E72C4900E02C492648C8
:2030A000AFE7C41B254A944204DD224922480490019E1AE01E46029800280BD50023204AE0
:2030C000944207DA049319460FE0254900E02249224896E70498039A029B01F04FF8012283
:2030E000D2079143FEF7C6FD0490002E8AD0022E05D0012E0FD10122D207514082E7114AEA
:20310000114B049800F035F802460B460A480F4900F02AF875E70B4A0B4B049800F029F891
:20312000054A0B4B6BE7C046FFFFFF7F0000F07F000010C0FB21F93F182D4454FFFFCF03D6
:20314000000040FC075C143326A6A1BCFB210940FB2109C0FB21E93F7CD902C0D221337F16
:203160007CD90240FB21E9BFFCB40124E407634002E0FCB40124E40708B41D03ED08D60D3B
:20318000354356025F007F0D06D12C00344300D0AEE001B0FCBC7047A40825430724240217
:2031A000FF34A74205D10020190D090501B0FCBC7047002B03D50024A61BAC4125000B03A1
:2031C000DB08C20D134342024800400D07D11C00144300D08CE00EBC1000F0BC7047012425
:2031E0006407234307242402FF34A04205D10020090D090501B0FCBC7047002903D5002439
:20320000A21A9C412300C11B08D51C002B0025001400320026000024611A3800362925D531
:2032200002B4393949420C00203C03D22F008F40374301E03700A740002F01D040210E4375
:2032400002BC20290BD500290ED04C42203420B4A5402C0020BC0D41CE40361904E0002925
:203260002E000D4120390E4192196B411C0014433ED00024002B04D5012400218A1A994166
:203280000B00401E52005B41FBD50121890215000D400CD0521800277B4101D3401C0BE0B4
:2032A0000721C90115000D4001D189008A43072109028A4352005B41801C19DD07210902DF
:2032C000FF31884209D30EBC0020C90F0902FF31C900C91D0905F0BC7047190B000501438E
:2032E000E40721431805120B104301B0FCBC70470021002001B0FCBC7047FEE7F0B581B0B6
:203300005D4A812111605D4901220A600A6402270F61009041B2002902D458490A6101E04A
:2033200056490A600125284603F0BCFD534C27600526304603F0B6FD2761304603F0B2FD37
:203340000098400602D44D48056101E04B4805600125284603F0A6FD484C276005263046FF
:2033600003F0A0FD2761304603F09CFD0098800602D44248056101E04048056001252846ED
:2033800003F090FD3D4C27600526304603F08AFD2761304603F086FD0098C00602D437485B
:2033A000056101E0354805600125284603F07AFD324C27600526304603F074FD27613046DE
:2033C00003F070FD0098000702D42C48056101E02A4805600125284603F064FD274C2760A4
:2033E0000526304603F05EFD2761304603F05AFD0098400702D42148056101E01F48056065
:203400000125284603F04EFD1C4C27600526304603F048FD2761304603F044FD00988007C1
:2034200002D41648056101E0144805600125284603F038FD114C27600526304603F032FDED
:203440002761304603F02EFD0098C00702D10B48056101E009480560012003F023FD074D46
:203460002F600524204603F01DFD2F61204603F019FD01B0F0BDC0460480424090120A40CC
:20348000F0B591B009900024E043002900D1A5E00F4625255A49495D002900D09EE00392F3
:2034A0000195029304900998002800D186E001250A940597524B997A4A424A413E19294660
:2034C00000D011460998001B0B90102801DB10200B90002900D083E010A80A9941700C0A11
:2034E0000470C8B20B9989B207910A185868418908928A4274D800781968097E022210ABAA
:20350000FEF79EFF3E4B00286AD105CB417D10780B9AD2B20692083B1F463346FEF790FFB1
:2035200000285DD1B87A00285AD0E0B210A90A9B4B70087078684189089B8B4250D80078D4
:203540003968097E022710AB3A46FEF779FF2C49002845D105C9417D10780CAB069AFEF75F
:203560003FFE00283CD1079800281DD0381A0CA904E0891CB61C801C012F13D0421E54421E
:2035800054410A78337893422F4600D12746002F08D1444244414A78737893422F46E8D11E
:2035A0002746E6E7934226D10A980B9940180A9084B209988442059F00D27BE710AB039802
:2035C0005870000A18700E4C05CC817E10780222083CFEF735FF0028049804D011B0F0BD48
:2035E000049811B0F0BD0120019960540298E084002011B0F0BD0498401E11B0F0BDC04658
:20360000380A2020F0B585B00C4605465648014081420CD1284621462A46234601F0F8F9A2
:203620002A462346FFF7A5FD05460C4698E04F4E002C79DD200D012104910905002807D1F3
:203640000023002C06D16805EC0A153B0546F8E72A460DE000200C4202D1401C6400FAE728
:203660002A46824020273F1AFD402C43181A401C4B1E23400B433E4940180190C00703D01A
:20368000D00F59000B185200D00F59000C180498410500252F46520000290ED04819844225
:2036A00000DB7F18844200DB4518201A00DB04466000D30FC4184908EDE70097771C0023AB
:2036C0001E46002F26D0D819AC4204DC1CD1824201D2254618E0641B8242039600D2641E8B
:2036E000029500260028049B00D43346C1190D460029049900DA31460B400299C918039E4D
:20370000F619121A2B460D46D00F61000C187F085200D6E7224304D0701C13D00120304077
:203720008619019A009B11E020463040284317D0002C00D47EE704F043F8212101600F4C09
:2037400000250DE0009B5B1C0026019A7008D9070D18D004074940180749014058100C186E
:203760002846214605B0F0BD0000F07FFFFFFF7F01FCFFFF0000E03F0000F0FF0000F87FA7
:20378000F0B585B002AB802018704F4F05CF817C10780122083FFEF753FE0026F44300284E
:2037A00018D1642003F0F4FA02AB1E7005CF817C107801252A46083FFEF742FE002809D113
:2037C00005CF817D1078062202AB083FFEF708FD002802D0204605B0F0BD02A841782940EB
:2037E0004279D207520FC078C007800F8018411849D001292A4602D002295CD132462420BC
:203800003E5425203E5426203E5427203E54FF20B87438743048F881FA743D73BC60280440
:203820007E61BE61FE61386204AB1820187005CF817910782A46083FFEF702FE0028C9D15E
:2038400004A80078C0083872022002F0C9F80028C0D12A2002F0A2FB0028BBD1322001F074
:2038600065F80028B6D1002002F01EF80028B1D10025284601F0AEF90028ABD1284601F03C
:20388000F7FA2C46A6E705CFC1781078012202AB0192083FFEF7A4FC00289BD102A80178AD
:2038A0000F20084004280AD000283246A7D1094803F0E0FD8EE7054802F0E6FF8AE70448FC
:2038C00003F0D8FD019A9AE7380A20201E8500009085000044850000FFFF0000F0B585B029
:2038E0000E4605460021CC431920800186427BD80720284078D0019103AF384603F0AAFCF2
:20390000304603F07FFD434902F00EFA39788A1E0121CA41072A67D88D21CE053E499300AB
:2039200001A2D2589746C0465F39000049390000E939000051390000E9390000E9390000CD
:20394000E93900005939000023214E06354906E08B21CE05324902E045210E062F49029453
:20396000074602F017F903F0F1FB044631462E4604ADE870384602F00DF903F0E7FB6870B8
:20398000210AA970000A2870AF1CF00706D1B00718D47007029C2AD4019C25E03C46492065
:2039A00087003846B030022104AA02F0E9FD002819D1022138462746224602F0E1FD0028F9
:2039C00011D1E4E7492084002046B430022104AA02F0D6FD002806D1201D02213A4602F09C
:2039E000CFFD0028D5D0029C204605B0F0BD492085002846B830022104AA02F0C1FD0028DB
:203A0000F2D10835022128463A4602F0B9FD0028EAD1C1E700004843000040460000C0444D
:203A2000000040450000C04570B582B00026F4434F4DA87A00281ED001AB1E7005CDC17B2C
:203A400010780122083DFEF7FBFC002813D105CD41791078012201AB083DFEF7F1FC00284C
:203A600009D105CD01791078012201AB083DFEF7E7FC002802D0204602B070BD2420285CA5
:203A8000002813D001AB0C20187005CD017910780122083DFEF7D4FC0028ECD1322003F090
:203AA00077F9A87AC0073AD01F2039E001AB0420187005CD017910780122083DFEF7C0FC06
:203AC0000028D8D1A97A4020C907014600D06021AA7C002A00D0014601AB197005CD017942
:203AE00010780122083DFEF7ABFC0028C3D1322003F04EF9687C411E884101AB187005CDE0
:203B0000C17B10780122083DFEF79AFC0028B2D105CD41791078083501222B4621E03F20FE
:203B2000C04301AB187005CD017910780122083DFEF786FC00289ED1687C411E88414000B8
:203B400001AB187005CDC17B10780122083DFEF777FC00288FD101AB1E7005CD41791078F5
:203B60000122FEF76DFC002885D1344683E7C046380A2020F0B587B04C484D4901604D4FD7
:203B800002263E600524204603F08CF93D46103D2E60204603F086F947480068069020462F
:203BA00003F080F93E60204603F07CF92E60204603F078F9404800680590204603F072F98C
:203BC0003E60204603F06EF92E60204603F06AF9394F38680490204603F064F935480660E8
:203BE000204603F05FF92E60204603F05BF938680390204603F056F92E480660204603F0C9
:203C000051F92E60204603F04DF938680290204603F048F927480660204603F043F92E6069
:203C2000204603F03FF93F68204603F03BF921480660204603F036F92E60204603F032F956
:203C40001D4800680190204603F02CF919480660204603F027F92E60204603F023F91648E7
:203C60000568204603F01EF9124806600120059A02400699C907890F51188900049AD20735
:203C8000920F8918039A024051188900029AD207920F8918074079188900019AD207920FE4
:203CA000891805406818C0B207B0F0BD0480424081000400A0120A4080130A40FEB5002988
:203CC00007D00D460646464F0024072F03D8204603E0002481E03846083885427DD8414873
:203CE00000688047701E08210642304600D00846072E00D80846E91D029107213A4A1378D7
:203D0000002B1BD1072F01D8002301E03B46083B2546002B04D1364B00241C602C460BE0CC
:203D2000324B00249C60324E3360072F01D8274600E0083F2C461F60012313700094029A68
:203D40008A43029241420191421E294C2568002D35D02C460834161901990E40B44210D0BE
:203D60002B4610333746083F9F4201D23618F9E7029973182F6801218F43E1199942E5D3AB
:203D800006E0296801239943029B9942DEDB2646284603F015FCA64216D0301B01460839FC
:203DA0002A6829600123DC432240101A184321406C18A060284603F0D5FA083405E00D4833
:203DC00000688047009C08E02C462046029902F009FC08480068804708342046FEBDC046E4
:203DE00000080000BC0A2020400B202000002020E00D2020C00A2020F0B587B01D46164618
:203E00003024059004700022304619461746134602F024FC0028019402D00120C00745408A
:203E20000D9804900C9803903E4C304629463C4A234602F031FC002809D00022304629468D
:203E40003A4B00F09BF906460D467F1CEDE70598441C0022304629460692134602F0F4FB75
:203E6000002811D10022304629462F4B02F0F6FB002809D00022304629462C4B00F0C8FDA0
:203E800006460D467F1EE4E73046294602F0A6FE214602F07FFD3B46C119049A11600294CB
:203EA00027180398C018441C012C19DB3046294602F094FE03F02CFA02460B4630462946CF
:203EC000FFF752F90022194B00F0A2FD06460D4602F084FE30303870641E7F1C002CE5D172
:203EE000781E017835290DD3B91E059B019C0A78521C0A70D2B23A2A02D30C70491EF6E77A
:203F0000994203D006990170029806E00699017004990868401C0860059807B0F0BDC0467B
:203F20000000C0FFFFFFDF410000F03F00002440F0B589B04548812101604548012404608D
:203F400004640A2002F024FF68266B2780230393304639462246FEF773FA642002F018FF15
:203F600000253046394622462B46FEF769FA1B21182330462246FEF763FA1C213046224634
:203F80002B46FEF75DFA04AB132002901870192130462246FEF754FA05AB04200190187020
:203FA0001A2130462246FEF74BFA3821304622462B46FEF745FA6A21304622462B46FEF703
:203FC0003FFA2321304622462B46FEF739FA372130462246039BFEF733FA06AF3D807521EF
:203FE000304622463B46FEF7FBF80146194802F04BFC3878682822D118486825294602F018
:2040000043FC6B21284622462346FEF719FA6C21002328462246FEF713FA07AB0298187032
:20402000192128462246FEF70BFA08AB019818701A2128462246FEF703FA254602E0064804
:2040400002F022FC284609B0F0BDC0460480424090120A4030860000398600005186000038
:20406000F0B5A1B0049305469068002801D5062090600290039200243C4F28462246069119
:204080003B4602F0FFFA06990028264614D10026374F284632463B4602F0EAFA06990028EC
:2040A0000AD1002228460592134602F0CDFA069B00282E461F4622D12E4D03F058FB02F0A4
:2040C000CDFA002809D00022304639462A4B00F09FFC06460F46641EEFE7274D03F047FB5F
:2040E00002F0D0FA002807D003F041FB00F046F806460F46641CF1E735463B46059407A86B
:2041000002990091019008A82A46FFF775FE0446079D022D0CD1204603F0DDFA0019401EB8
:20412000002101700598401C0125049E039F02E0049E039F0598397B324602F0FFFCBA688C
:2041400020462946334603F09FF8204603F0C3FA854203D138680007C20F00E001222046F5
:204160002946334602F074F921B0F0BD0000F07F0000F0FF0000F03F00002440FCB40C00CD
:204180005C40E40FE40710B41D032D0B56006D415F007F0D73D00124640525430724240210
:2041A000FF34A74261D00B031B0B42005B414800400D64D001246405234307242402FF345F
:2041C000A04252D0C01B002100273624AB4200D1B24204D37F414941921BAB4101E07F4151
:2041E0004941641E06D0002B01D1002A02D052005B41EBE7202C07D2162C0AD33900A740C0
:204200002026361BF1400BE0203C3900A140002706E0A1402026361B3D00F5402943A7402B
:2042200001246405214202D17F004941401E00247F1C61410124A405214202D0401CA143AF
:2042400001E06408A14303242402FF34001916DD2419A04209D8CC074908000501437808B4
:20426000204310BC2143FCBC704702BC0020C90F0902FF21C900C91D0905FCBC704700210E
:20428000002001B0FCBC7047F0B5394A8218394BC0183A4D4C790B79002C22D0466F202BD2
:2042A00002D00524E70100E0354F2E40002B00D188273E434667846F2C403C438467446BF8
:2042C0002D4E34404463846B3440846300244465846554688F26F643344054609468344006
:2042E00094600C688979202B09D006467036002B15D1641E4460C46E2C40882715E0641E43
:204300004460C46E2C401E4E3443C466046F2C40344304671B4D01246707064607E0052733
:20432000FF0164084460C46E2C403C43C46634682C403C433460C46A0F4D2C40C462046B80
:204340002C4004630024C4640465C46F8F25ED432C40C46714682C401460194302680A4BB0
:204360001340BD220A40D118891C0160F0BDC04684180000041800008888FDFF24493E00B0
:2043800001040000FFFFFFCF4000FFCFF8B5002872D00446394800688047083C3848002544
:2043A000A04207D20168012291434118083105460846F5E7324A3349072901D98A18083AF5
:2043C000016801270B46BB43C6180836964200D90026A0424DD1C8074BD0002D0AD0296888
:2043E0003940284600D00020002E06D1002932D100260BE0002E2ED000203178C907314668
:2044000000D0002100280FD00E460546284603F0D7F8002E0CD10120C043216801402A684A
:2044200008320240501813E0002500292F4612D0304603F0C5F80120C043002F0FD021681F
:2044400001402A6810320240511832680240881828602C460AE020680121884305E0316849
:20446000014022680832024050182060204602F079FF054800688047F8BDC046BC0A202000
:204480000000202000080000C00A2020B0B53A4A80184A6842600A78222A56D8930001A4C1
:2044A000E3589F46414500004B450000414500004B4500004B4500004B4500004B45000000
:2044C0004B4500004B4500004B4500004B4500004B4500004B4500004B4500004B4500005C
:2044E0004B450000314500004B450000314500004B4500004B4500004B4500004B45000070
:204500004B4500004B4500004B4500004B4500004B4500004B4500004B4500004B4500001B
:204520004B450000314500004B45000031450000036803242407A343012464071B1903E025
:20454000036803242407A34303600B69C360CB68C46A0A4D25400A4C1C402B19C36203681B
:20456000084C1C400460097A114302683F239A43194051180160B0BD041800008888FDFFEF
:20458000777702007F00FFFFF0B585B00D460646394800688047284601F0C0FF0021CC4337
:2045A000002863D0A868EA68735C491C002BFBD16B6907273B40491E042B009401910DD1FC
:2045C00000240F46002F49D0311928683A4602F0F1FE002844D43F1A0419F3E70297131A89
:2045E0000C460395002C39D09C421F4600D827466969029A11400229049311D1002F07D0AB
:204600000021725C0A2A06D0491C8F42F9D107E000252F4605E0721802D04F1C012500E06E
:20462000002531463A4603F0DFF803998868C0198860E41BF619002D0D46049B01D1DB1B52
:20464000D0D1284602F052FA002809D16869202101436961A868E9680B1AC3E7019C05E039
:2046600001208002696901436961009C034800688047204605B0F0BDBC0A2020C00A2020C9
:20468000B0B52D4985228A6501231C032B4804608A62102202602A4A842414611B060360FA
:2046A00082238B63274BCB63274B0B600C680C6081240C624C620D46143D2C600D46183D71
:2046C0002C604C661546143D2C601546383D2C601546343D2C608B648D6C8D644B644D6C6F
:2046E0004D64136015681560CB65CD6DCD654C610C643C3A14608B618A698A6103210A0306
:20470000124B1A611960D21C1A640246303A104B136003600F4802680F4B1343036009021A
:2047200002690A4302610D48016A0D4A11430162016811430160B0BD1C804240D0320A409B
:20474000C08042408200040081000C0090120A404D80030090330A4000C0030C28300A404A
:2047600080211000F0B583B0044603210840304B1D5C02AA15702F4D285C01AE3070200660
:20478000800F1F5C9770E706BF0FDB5D5370285CB070E85D7070284E304601F0F1FE002796
:2047A000FD4300282FD1301D032101AA01F0E8FE002828D102A8762181702049018001A8B8
:2047C0001F4901806621817060071FD4A00625D4E00505D501A86721817002A8772181706B
:2047E00030461A30032102AA01F0CAFE00280AD10B36032101AA304601F0C2FE002802D13B
:20480000104804803D46284603B0F0BD01A82721017002A837210170A006D9D501A8472131
:20482000417002A857214170E005D3D4D8E7C04668870000AD8500002604000036560000CC
:20484000264600002C0B2020F0B583B0FEF798FF000601D0002461E07825284600F008FBD7
:20486000000601D0012459E024202E4E305C002806D0642000F05AF8000622D003244DE0A7
:20488000B77A0224002F49D02F40357C3774707C002810D102AB01221A703068294675687B
:2048A000C07B019028780D460199FDF7C9FD002801D102987074FFF7B7F8002810D0357417
:2048C0002CE002F06FFE000601D0042426E0164800F044FDFFF746FF000604D005241DE09E
:2048E000782FC6D01AE0FF207430FDF733FB000601D0062412E0642001F06CFC000601D0F5
:2049000007240BE000F060FC002801D0082405E0012000F0F1FB00069CD00924204603B076
:20492000F0BDC046380A2020880A2020F0B583B0054636490026F443887A002863D02420D0
:20494000085C00285FD1087D00280BD0681E80B2272804D8E8B2FDF789FF344653E000204D
:20496000FDF784FF0096E8087D21CE007D2800D33546042D00D804253046294602F014FBC3
:20498000401E01AB1870214D05CD4178107801273A46083DFDF754FD002834D101A8047880
:2049A000611C304602F000FBE881A87A002829D0012C01D802A815E0042C02D802A80227E9
:2049C00010E00A2C02D802A803270BE0182C02D802A8042706E0312C02D802A8052701E051
:2049E00002A806270770E87AB8420BD005CD81781078012202AB083DFDF722FD002801D1BD
:204A00000298E872009C204603B0F0BD380A2020FCB50C005C40E40FE40710B4DD02540D83
:204A20002543D6025F007F0D60D00124E407254307242402FF34A74250D0CB02440D234392
:204A4000C2024800400D51D00124E407234307242402FF34A04241D0C01901B41800290020
:204A600002F01EFB0F0001B41800310002F018FB03000C001000310002F012FB06001000B4
:204A8000290002F00DFB05007618002202BC01BC55415141A419554151418024A4005B19FA
:204AA0005141FF18514100D564003F19514102D47F00494100E0401C03242402FF34001BE2
:204AC00014DD2419A04209D80305F80A4C0520434900090B194310BC2143FCBD0020FF2145
:204AE000C900C91D090510BC2143FCBD0021002001B0FCBDF0B585B034490E88B107090FA8
:204B000003904058710700D54042C117304A0024234602F0C1FC8A0904AFBA708A0B7A701E
:204B20008A0D3A708900800F4018F87030090C25284003990858F10500D54042C117244AFB
:204B4000234602F0A9FC029001917008284003990858B10600D54042C1171D4A234602F0AD
:204B60009BFC03900E463D200501042128463A4601F006FDE443002824D1B0000399890F25
:204B8000081804AAD070010A9170010C5170000E1070281D042101F0F3FC002812D10198B1
:204BA00080000299890F081804AAD070010A9170010C5170000E107008350421284601F00B
:204BC000DFFC0446204605B0F0BDC0462C0B202009E3CA02F0B581B00446354EB07CA04202
:204BE00001D1002560E005CE0179107801226B46083EFDF7F5FA0027FD43002C19D0002808
:204C000052D16B461878DF210140197005CE017910780122083EFDF713FC002844D10320C5
:204C200002F0B6F82220305C002826D07D20C04324E0002838D16B461878DF210140B07A67
:204C4000C007800E0818187005CE017910780122083EFDF7F5FB002826D1032002F098F871
:204C60002220305C411E02468A41D1016A461170002805D07F20C04302E002206946087027
:204C80002321715C002903D0302108436946087005CE017D107801226B46083EFDF7D0FB92
:204CA000002801D1B4743D46284601B0F0BDC046380A2020F0B585B0049316460F4605468E
:204CC0003048006880470024E1432868401C04D0042E049B03D0002B01D10C4646E0029773
:204CE0006F6968682A1D0392002801910CD0390703D5401EFFF74AFB049B039804604460A7
:204D00008460C460082087430120002E014600D03146072297430F436F61190A1E4600D040
:204D200006020298002806D0012B04D00298401C039908600CE0761C304602F0EDFC03996E
:204D40000860002818D008210F436F61401C68608119491EA860E96028610B48006880470F
:204D6000084800688047094809490160064800688047204605B0F0BD0120800207436F61AE
:204D8000019CF3E7BC0A2020C00A2020940A202085710000F0B584B03049314A0125AC0316
:204DA00016682B0203939E4316600E68264205D10E68264202D10E682642F6D06C02467E20
:204DC0009769AF432E40BD1995612025455DD6690327BE433D407519D561224D2E680727E2
:204DE000374005262E60466A33681362736853622F60C3695B065B0CD5697F263602B5439D
:204E0000EB18D361E8C8009707680197476802971B071B0B2D03ADB2ED1833071B0D007A0D
:204E2000009E35431D43019B1D43029B1D43054390690D4B03400D482840C0189061106829
:204E4000039B184310600868204205D10868204202D108682042F6D004B0F0BD04020B4052
:204E600008010B40001340408D00F0FF72FF0F0070B582B004464006400F02D06846012177
:204E800005E06846002C01D0002100E0402101702C4E05CE817C107801256B462A46083E50
:204EA000FDF7CEFA00281AD1200904218143A20600D4891C284040186840210700D4383024
:204EC0006B4619781870BF200840307305CEC17C10782A46083EFDF7B3FA002805D0002032
:204EE000B072C543284602B070BDF720044222D02325705D00281ED0B07C411E02468A4123
:204F0000510001AA11702221715C002907D0002801D07D2000E07F20C04301A9087005CEF7
:204F2000017D1078012201AB083EFDF789FA002801D10020705500253575B472322001F0C8
:204F400027FFCFE7380A2020F8B515462A4E771C0A0D3A40294B9A4213D00C46002A18D1B7
:204F60000122D2079443044344D00022244BFFF74FFD0C4623498D4208DC234A234B21467D
:204F800036E002460B46FEF7F4F8F8BD220D3A40363A5119B1420ADD02F012FC22210160CB
:204FA0000120C00704401D4821180020F8BD012904DB174A144009052143F8BD3522D24301
:204FC00091420CDC02F0FCFB2221016012488542E6DA0120C007044000202146F8BD0C4AEA
:204FE00014401B2252050905891821430022094BFFF70EFDF8BDC046FE070000FF07000079
:2050000000005043AF3CFFFF59F3F8C21F6EA501FFFF0F800000903C51C300000000F07FFF
:20502000FCB40127FF07794002E0FCB40127FF070C024D002D0E03D1002C52D1FCBC7047F1
:205040003C43FF2D50D0A408002900D56442020243001B0E04D1002A43D10800FCBC70473B
:205060003A43FF2B41D09208002800D552425E1B04D5170022003C0076422B00192E06D581
:2050800027003741D2191C27F71B7F42BC40002A27D002D55242012700E00027013B52002B
:2050A000FCD51500802635400FD01500202635402C43803208D21500402635402C4304D111
:2050C00001263602B24300E05B1C5200023308DDFF2B0BD2500ADB051843FF073843FCBCE4
:2050E00070470020FCBC70470800C70FFF07FF20C0053843FCBC7047F0B585B02427314E14
:20510000F15D0024814259D0002835D02520305C0025002851D0002902D1B07A00280CD09B
:2051200002AB1D7005CEC17B10780122083EFDF787F9002801D1029870742846FFF74AFD9E
:20514000F08CFFF7F3FB01AB1D7070680078232101252A46FDF774F9F55503AB0220187089
:2051600005CEC17B10782A46083EFDF769F9002820D1039870741DE0002902D1B07A0028A9
:205180000DD004AB0020187005CEC17B10780122083EFDF755F9002801D104987074307C73
:2051A00001AB18707068007823210122FDF748F90020F055FEF738FC00E0EC43204605B017
:2051C000F0BDC046380A2020B0B586B003A86946FBF782FC032809D1274D287A032807D018
:2051E000022807D0012807D1264C06E0012440E0254C02E0224C00E0204C039801F032FF46
:205200000146204600F0C6FC01F0A0FF0390049801F028FF0146204600F0BCFC01F096FF7D
:205220000490059801F01EFF0146204600F0B2FC01F08CFF059003A8FFF75CFC0920295632
:2052400000240329204608D88800E97C002901D00F4900E00D49081800680099414300910D
:20526000019941430191029941430291684600F011F8204606B0B0BD380A202000000343D4
:20528000333303420000834233338341D0850000E0850000F0B58BB0054607AC204601F085
:2052A00039FF2D48068830090C210691084005952A58F00500D55242D3172088C40300217A
:2052C0002046049102F0E8F803900F46880908ADA872880B6872880D2872700806990840BE
:2052E00005990A58B00600D55242D31702942046049902F0D1F801900C468809A871880B31
:205300006871880D2871B007000F05990A58700700D55242D3170298049902F0BDF88A0985
:20532000AA708A0B6A708A0D2A70BA00039B9B0F9A18EA72A200019B9B0F9A18EA71890025
:20534000800F4018E870A520800006992A4601F017F90BB0F0BDC0462C0B202010B50022ED
:205360008156002913460CDD03214456002C114617DD06240457002C1BDD1943114308460F
:2053800010BD00291FD40123C1560029ECDC00292DD40223C1560029E6DC002935D0062350
:2053A000E2E7002C11D40421415600290FDD0821DFE701221202002CDFD407240457002C8B
:2053C0000DDD4022D9E70423CEE72021D1E700290FD40521415600290FDD1021C9E7002C01
:2053E00009D40824005700280BDD8022C5E70523BAE72821BDE74032BFE7002907D03021D0
:20540000B7E7002805D0802004E00723ACE73821AFE7C0201218B0E7F0B581B0264C274968
:20542000204602F087F826492046FEF72DFF25480168254A0A404921C901511801600125EC
:2054400000950026204631463246334602F0D4F8204631462A4602F05FF8204631462A4622
:2054600002F01AF902270097204631463246334602F0C2F8204631463A4602F04DF82046F3
:2054800031463A4602F008F903270097204631463246334602F0B0F8204631463A4602F0AA
:2054A0003BF8204631463A4602F0F6F8074885600E21016001B0F0BD000086406B870000A2
:2054C00060870000041886407F00FFFF00118640F0B581B02648002101600F200002254E45
:2054E000321F1168814301256F02C819009210600320C043314608390A6802400A60306810
:20550000A843306030681C49084030601B48FFF741FC00F037F800280FD0009A106810213C
:2055200001432020814311602803116801431160002001F051FC01B0F0BD114C03E000F06D
:2055400021F80028E9D130680B4908403060280231680143316020683842F0D1206838422F
:20556000EDD120683842EAD120683842F3D0E6E708030B4008010B40FFFEFFFF648600008F
:2055800004020B40F0B585B01F200006204A11688143116001242105A2040020039101F0ED
:2055A000ADFF1C481C4901600494660642241B4D1B4F3868304204D1284602F0B3F8641E65
:2055C000F7D11348806902900498020400200190039901F093FF0F480F49016042243868A5
:2055E000304204D1284602F09DF8641EF7D117350298454306488169284601F0D5FC0949FD
:2056000040180F2801D301980490049805B0F0BD38010B402C030B400100000ED10300001B
:2056200004020B4043F6FFFFF0B585B006462420254F385C0024E543002842D0B87A002890
:205640003FD00291039205CF817A1078022204AB083FFCF7C5FD002833D104A841780078E4
:2056600000024218B24203D200200399087028E07868418849088A4201920DD90078396871
:20568000497C012204ABFCF7ABFD002819D104A80078C00612D4786800783968C97AF2B216
:2056A000029BFCF79DFD00280BD10198314601F07BFC401E03990870254602E0FEF7B4F9E3
:2056C0006D1E284605B0F0BD380A2020F0B58B4200D1824204D90B0002000021002040E09B
:2056E000002B00D1002A0CD10B00020000210020002B00D1002A01D0C943C04300F06FF9FB
:205700002FE01C0015000B0002000CB4002126002F00FF19764102D2491C4029F9D10020AB
:205720001E001700FF19764102D2401C4028F9D10E1A21002800320001F0D0FE0C00050090
:205740000CBC00200021A34200D1AA4201D3521BA341404149416D08E7073D436408761E8B
:20576000F1D5059F002F01D03A607B60F0BD7047F0B581B004461046204333D0104601F0C3
:2057800071FC1D4900F0D0FA1C4900F003FA0546204601F067FC06462946FFF741FC01F046
:2057A000D5FC04461648844200DC04467D20C700BC4200DB3C461348046028463146FFF72B
:2057C00034FC01F0C3FC0E49884200DC0846B84200DB38460C49086000B221B201F084FB99
:2057E00001B0F0BD0748002101600748016000F063FE01B0F0BDC04600007A4400003C43D8
:2058000018FCFFFFFC0A2020EC0A2020F0B581B01A48016800681A4A13681A4C1C431460D9
:20582000C905890F184A1170184902240C60C10C21408004C00F08181549087015480460F4
:205840000125E803144908606804086028031349086068030860124E0027304639462A46F0
:2058600001F01AFF30463946224601F015FF0D4801682943016001B0F0BDC04680330A40D0
:2058800048300A4080211000390B202080E200E03B0B202000E100E0A0320A40A0120A4070
:2058A0000000864004188640F0B585B005462420234E305C002801D000243DE0B07A002452
:2058C000E743002837D0FE210D402840317C3074A84200D0E443002D11D1307D00280ED1A6
:2058E00004AB0020187005CEC17B10780122083EFCF7A6FD00281FD1049870741CE0707C3B
:20590000002810D103AB01221A70306802917168C07B019008780199FCF792FD02990028F4
:2059200001D103987074002D06D00D46FEF77CF8002801D035743C46204605B0F0BDC04665
:20594000380A2020002A49D084468B071CD1830722D1102A08D370B4103A78C978C0103A76
:20596000FBD270BC103238D0042A2CD3082A05D30C2A01D308C908C008C908C008C908C0D8
:2059800092072AD0920F22E00B780370491C401C521E22D08B07F7D1C30714D18307D8D07D
:2059A000121F12D308C903801B0C4380001D121FF8D20AE008C903701B0A43701B0A83705D
:2059C0001B0AC370001D121FF4D2121D05D00B780370491C401C521EF9D160467047704752
:2059E00070B582B00025EC43214EB17A00293CD0811E0120C141072937D8890001A2515857
:205A00008F46C046255A00002D5A00006B5A0000355A00006B5A00006B5A00006B5A000002
:205A20003F5A000001A9002008700CE001A908220A7008E001A810210170022003E001A870
:205A4000182101700320717A81420DD005CEC1791078012201AB083EFCF7F2FC002804D166
:205A600001A80078C00870722C46204602B070BD380A202070B582B01D480068002830D0D6
:205A800001A8694601F01AFD1A480168019A026019480368009C0460E01AC6178419501A34
:205AA000C1174018484001F0DDFA05467440204601F0D8FA01462846FFF7B7FA3F210C0670
:205AC000214600F067F80D4900F064F82146FFF7ACFA01F03BFB0A490A681018086002B03D
:205AE00070BD0448044901F0E9FC02B070BDC046D80A2020A00A2020A40A202014EEF43DF8
:205B0000040B202040B542004B005E08164301D006004E4000D4D01A04D20120C90F06D12C
:205B2000404204E003D90120C90F00D04042FF263606B24200D8B34200D9012040BDC046B9
:205B400040B542004B005E08164301D006004E4000D4D01A04D20120C90F06D1404204E0D5
:205B600003D90120C90F00D04042FF263606B24200D8B34201D90120404240BD42004B00D5
:205B80000020FF2109068A4200D88B4200D9012070477047FCB40127FF0706004E4001D496
:205BA000002600E03E00020243001B0E30D03A43FF2B30D00C024D002D0E29D03C43FF2D50
:205BC00029D05B194240504042404C4061404C4000B501F065FA20BCAE46424050404240A2
:205BE0004C4061404C4025001400002C01D46400013B803401D3013364087E3B08DDFF2B22
:205C000009D2BC43200ADB0518433043FCBC70470020FCBC7047FF20C0053043FCBC70470E
:205C2000B0B5194C1949204601F024FD1849204600F0FAFF0321CA0316480368934303601D
:205C40000269154B13409A1C026142690B231343342293434361436801221340446894436A
:205C6000E318436093020D4C25681D432560FF231B060B4C25689D43890769182160016824
:205C800011430160B0BDC046008010402287000006840000009110400000FFFF28901040F2
:205CA0000CE400E001F070FCFFF7B0FDFEF740F9FEF7CAFD00280AD0154C204601F0DAFB9B
:205CC000C82001F065F8FEF7BFFD0028F5D101F0EBFC0124204600F0A9F80E4D2C602004F0
:205CE0000D4908600D4908600D480168214301600C4C01E000F0E0FB01F016F928680028E9
:205D0000FAD020680128F5D100F0BCF9F4E7C04654870000DC0A202080E200E000E100E0B8
:205D200004580840C40D2020FCB40127FF0706004E40F60FF607020243001B0E2DD03A4350
:205D4000FF2B2DD00C024D002D0E26D03C43FF2D26D05B1B0020202164085208A2424041ED
:205D6000A24200D3121B013904D0002A01D05200F4D18840384201D14000013B803001D30B
:205D8000013300E040007F3307DDFF2B08D2400ADB0518433043FCBC70470020FCBC70471F
:205DA000FF20C0053043FCBC70477047F0B585B0012210040190002507242F462E462B461A
:205DC000029203940493019C20464130154B186138462040402129407207D20F89180143CD
:205DE0001960102001F09EFC049B029A3F19039C1046A0400C4909688907C91701400B4342
:205E00002035641E761C082EDBD13F2018403F38411E8841D9B28909032900D30022104350
:205E200005B0F0BD90320A4080330A40B0B50446114D002028606860A860E86028610F4949
:205E400008600F4908600F4908600F4908600F4908600F4908600F4908700F4908600F4932
:205E600008600F4908600F49086001F0D1FB601E032800D82C60B0BDC40D2020040B2020A3
:205E80000C0B2020100B2020140B20201C0B2020180B2020440B2020D80A2020000B20202B
:205EA0009C0A2020B00A2020FEB504460025EF430168481C06D002916669204600F016FE3F
:205EC000002802D03D462846FEBD0120000306400196207D000707D56068401EFEF756FA30
:205EE00060690821884360616560A560E560206800F04CFE0546276001980028E3D00648BF
:205F000000688047029800010449081801F068FC034800688047D6E7BC0A2020240D202047
:205F2000C00A202070B51548014610390A681449114022D002680A430260124908788000BF
:205F4000114A1368DB059B0FC4181048045712680F4D2E6834192C600B70D10C02230B4045
:205F60009104C90F59180B4A137811709A005118405609490A681018086070BD48300A4006
:205F800080211000390B202080330A4038870000E00A20203B0B2020F00A202070B582B0CF
:205FA0000025EC43194EB17A00292BD0BC2802D301A9012015E0622802D301A9022010E043
:205FC0002A2802D301A903200BE0142802D301A9042006E00A2802D301A9052001E001A9BC
:205FE00006200870F17A81420BD005CE81781078012201AB083EFCF723FA002802D10198ED
:20600000F0722C46204602B070BDC046380A20200CB41B4B4A00D21A1BD2000D0A03104329
:2060200001221202801802D3400812038918400A002902D50122D20710434900490D38222C
:206040001201891A0CD4FF290DD2C90508430CBC7047DB431A40024305D0D8430CBC7047DF
:2060600000200CBC7047C90FC907FF20C00508430CBC7047C046C046C046C046C046C04607
:206080000000E0FFF0B581B0134E3068002807D1012030601149086011480068114908605C
:2060A00019273D010024284621462246FFF760FBFFF77CFE01280CD179010B4802688A4237
:2060C00007DB0A490D600A490C60346003490C60046001B0F0BDC0460C0B2020D80A2020D2
:2060E000C80A2020000B2020040B2020C40A2020C40D2020F0B583B00446184E0F46374081
:206100000020C5430295164D019464422C46BC411BD300931E405442B54116D31446019D67
:206120002C433E432643009B0DD0184608400FD4A81A08469841029805DB55405940294308
:20614000481E8141084603B0F0BD029803B0F0BD501B184688410298EFDAF4E7FFFFFF7F23
:206160000000F07FF0B581B00446184D00910E462E40174F0120214664423C46B4411AD3E0
:206180001D405442AF410F46009914D3104638433543054311D01C460C400020C043002CD8
:2061A0000ED4BC1A0C469C4105DB574059403943481E8141084601B0F0BD002001B0F0BD1A
:2061C000D41B1C468C41F0DAF5E7C046FFFFFF7F0000F07FF0B585B004461348049013489C
:2061E0000390134802900027FD43C82C18D86E463770E1B2C82000F0D7FE401E70700D48A6
:206200000221324600F0BCF9002809D10A480C2102AA00F0B5F9002802D1084804803D4621
:20622000284605B0F0BDC046BBAFDFDFAAF1DFDFFEF2ABC416020000C10A0000340B202046
:2062400070B514460D4606461648006880473068401C1FD0012C08D1307DC00605D5B06845
:20626000002802D040193169451A304600F03EFC05204002716981437161306829462246EC
:2062800001F084F80446084800688047601C06D0002404E00448006880470020C443204666
:2062A00070BDC046BC0A2020C00A2020FEB5044600680026815D002903D03A2903D0761C6E
:2062C000F8E7144D23E08719124D20D0082E00DB0826002E11D06A46314603781370002BEE
:2062E00005D0521C491E401C0029F6D105E0022903D3501C491E01F079F9684600218155E7
:2063000000F0ECFE002802D0791C216005462846FEBDC04670092020F8B517460E460546B7
:20632000144800688047380A134CE071A771300E6071300C2071300AE070A670280A60704A
:206340002570F420002521462A462B4600F04EFF2046294600F030FFE578A6782778647800
:206360000648006880472002C0193104401829064018F8BDBC0A2020D80D2020C00A2020A7
:2063800070B59AB00D46064614480068804701AC2046314601F098F9304601F0A3F9064609
:2063A0000019401C294601F08FF9284601F09AF93018831CF7200A4D2946224600F016FF5D
:2063C0000021284600F0F8FE2C786D780548006880472802001900B21AB070BDBC0A202051
:2063E000D80D2020C00A2020F0B5184A0378401C0024082CFAD00578DE070DD12D01477841
:206400003E0976190F253D40ED1C122D0AD185782F0609D4C01C0DE0401C0D70491C641C3C
:206420005B08E6E7801C06E07F273D40C778FF017D19001D1235964207D0F643002DEED07B
:206440008F5D0F706D1E491CF8E7F0BDFF0F0000F8B51C4617460E46054601F03CF90021F5
:20646000012E03DBB04201DBA919491E002F04D02268531E23602E2313703246824206DDA4
:2064800023685F1E276030271F70521EF6E7B04200DB3046012808DBA9420BD30878226818
:2064A000531E23601070491EF6E72068411E216030210170F8BD0000B0B5104800240470F0
:2064C0000F4804800F4804800122D0030E4908605004086010030D4908600D4804600D48B6
:2064E0000460500308600C4D2846214601F0D4F802222846214601F0CFF8B0BD3C0B2020ED
:206500002E0B2020320B2020A0320A40A0120A40E40A2020F40A20200000864010B504462C
:2065200001680020491C25D06269D10623D4100605D500210222204601F04EF962699006AB
:2065400004D4500602D52020024362616168012000290DD1042111400AD107200240012022
:20656000030200212046FEF7A5FB014640424841E168216110BD012189020A43626110BD86
:20658000F0B581B00027FC43002A25D00E46144B997A002920D0154669464870020A0A7079
:2065A000C0B2811958684289914215D800781968097E02226B46FBF743FF00280CD10849A5
:2065C00005C9417D1078F2B22B46FBF739FF002801D1044600E0FC43204601B0F0BDC0463B
:2065E000380A2020F8B50446026801251046A843401A102821D366180838B060A8430836D4
:20660000371808370E480F4A072A01D910180838009187420DD23878C0070AD1384600F0D1
:20662000CFFFE8433968014032680832024050183060304600F096FE009A2A432260F8BD39
:20664000000020200008000010B5FFF78BFD002801D0002010BD012010BDC04610B5FFF71A
:2066600081FD002801DB002010BD012010BDC04610B5FFF777FD002801DD002010BD012074
:2066800010BDC04610B5FFF735FD002801DA002010BD012010BDC04610B5FFF72BFD00284B
:2066A00001DC002010BD012010BD000010B5FFF729FA002801D0002010BD012010BDC0466A
:2066C00010B5FFF71FFA002801DB002010BD012010BDC04610B5FFF715FA002801DD002011
:2066E00010BD012010BDC04610B5FFF729FA002801DA002010BD012010BDC04610B5FFF75C
:206700001FFA002801DC002010BD012010BD8446830706D0002A29D001700130013A8307CC
:20672000F8D1042A1CD30906090E0B0219430B041943082A10D30B00102A09D370B40F24EC
:20674000161B22400C000D003AC0103EFCD870BC082A01D30AC0083A042A01D302C0043A31
:20676000002A03D0013A8154013AFCD26046704710B5114C20681149FFF7A2FF014620683C
:20678000002903D00121C90748400AE00C49FFF7ABFF002801D1002003E021680948FEF7D8
:2067A0003FFC09490860086800F01EFC024607480B4600F069F810BD280B2020000040C0F1
:2067C000000040400000B443C80A20200A870000F8B514460F460646114800688047380A2D
:2067E000104DE870AF70200A68702C700023F05C5B1C0028FBD1F0202946324600F0F6FC74
:206800000021284600F0D8FC2E786D780648006880472802801900B2002800D42046F8BD91
:20682000BC0A2020D80D2020C00A202070B51446002222600E4D0B462B400E4EB34215D8AB
:206840001E46064312D01E0D07D100220A4BFEF7DFF80D403522D2432B461B0D9A18074B0D
:20686000D2182260064A0A400649511870BDC046FFFFFF7FFFFFEF7F0000504302FCFFFFB0
:20688000FFFF0F800000E03F83B01EB505AC0EC401900F48006880470E4A9069401C0DD022
:2068A00005A902910C480090183201A80B4BF9F707FC04460A480068804704E00848006810
:2068C00080470020C44320461EBC02BC03B00847BC0A202000082020D1770000C9770000F4
:2068E000C00A2020F8B517460C460546104800688047380A01D001200702380A0D4EF07026
:20690000B770280A70703570F22000223146134600F06CFC3046214600F04EFC347875788D
:206920000548006880472802001900B2F8BDC046BC0A2020D80D2020C00A2020F8B51546EE
