:1000000000802020E1210000771500007715000016
:1000100000000000000000000000000000000000E0
:100020000000000000000000000000007715000044
:1000300000000000000000007715000077150000A8
:10004000771500009908000077150000771500006B
:100050007715000077150000771500007715000070
:100060000000000077150000771500000000000078
:1000700000000000771500007715000077150000DC
:1000800077150000491E00007715000001210000CF
:100090007715000077150000000000000000000048
:1000A0007715000077150000000000000000000038
:1000B000771500000000000077150000771500009C
:1000C00086B001F0DDFB01F0C7FC00F0C9F901F0DA
:1000D00095FD6C48812101600091C1612120019052
:1000E000C004694908610290086400F0AEFF01F0A5
:1000F000AAF901F0EDFF0024204601F03DFA01F0DD
:100100008FFA624E624F204631463A46234601F04E
:1001100085FE0125284631463A460394234601F0E0
:100120007DFE01F091FF01F0B7FE5A4C01F060FB3B
:10013000207801281CD102F035F8064601F04CFC6D
:1001400001F093F801F012FEE068301AFA2800D2AC
:100150008BE0E660A17808466840A070002967D06F
:100160000299494A1161002865D101F06CF97CE0DF
:10017000494801F07DFA039E072E20D8F0B201F025
:100180000FFF761C0028F7D0E078022803D2411C2C
:10019000E170012815D1A570257002F003F8E06028
:1001A00001F01AFC02983849086001F008FD01F0DE
:1001B0005CF8632001F092FD01F0D8FD55E00020CD
:1001C000E070002705970497607800282DD004A8D8
:1001D00001F0F4FE6068A168049A101AC217801832
:1001E0005040059A511ACA1789185140081AC11768
:1001F00042184A40032A31D301F0A6FC274900F0F7
:1002000025FF06460098C7053046394601F0AAF991
:1002100000281BD13046224F394601F085F90028CD
:1002200038460BD0BF21090613E001F035FE15E07A
:1002300002981549086001F0C2FC16E0002730461C
:10024000394601F08FF9002813D037463F200106C8
:10025000384600F07AFC01F025FD07460198C01BE6
:1002600001B2213738B200F037FF012001F054FF0E
:100270005CE73046394601F057F900283046D1D1C5
:10028000ECE7C046B480424090320A403333B33E7C
:100290006F12033CF80420200A052020CDCC4C3EF0
:1002A000000080C0F0B589B008A800250580624C28
:1002B000A078002804D0012001F05EF909B0F0BD5B
:1002C0005E4800F00FFD20780028F7D05C4F3846DC
:1002D00001F0F4FD1020385E012829461FDB798AE1
:1002E00080B2884229461AD12E4603CF083F00F03B
:1002F00027FC7D21C90500F0A9FE0546514C214689
:1003000001F012F9002800D12C464F4928460D462D
:1003100001F028F9002800D125462946354601205C
:10032000C00700914840019039460831474E0836D1
:10033000384610300790022D65D0069504910C6860
:100340002046434901F00EF905462046414F394603
:1003500001F0EAF80028384600D12046002D3C4F35
:1003600000D1074603963760069D002D019C00D002
:10037000009C00260798805F05900128314619DB14
:100380000294059801F0E0FB334900F05FFE04465B
:100390000025294601F0C8F8002800D1254620464E
:1003A0002E4C214601F0DEF80028214600D12946D6
:1003B000069D029C08A84655384600F0C6FB01463B
:1003C000204600F0C2FB0446314601F0ADF800289B
:1003D00000D126462046214C214601F0C3F80028D2
:1003E000174F00D1344604990C6005980028039EED
:1003F00002D10020306008600798801C07902836E2
:10040000091D6D1C97E7B86801F04CFC0446F868BC
:1004100001F048FC0146204601F078FC08A800786D
:10042000002801D001F0D8FD08A84078002800D1AC
:1004300044E701F0DFFD41E7B4042020AC042020B4
:10044000980420200000A0C10000A0411804202032
:100450000000F0420000F0C2666686400000524490
:10046000F8B5C82001F058FE4148424901600268D1
:1004700002600167016F0167012081053E4C216028
:1004800021640502256025642160216425602564BE
:100490000026082E09D82561256401F08EFE25600E
:1004A000256401F08AFE761CF3E701F03DFD78201B
:1004B00001F0AEFD002801D0002002E07A2001F01A
:1004C000A7FD2E490870AE2000242D4F2146B847C5
:1004D000D5202146B84780202146B847A82021468C
:1004E000B8471F202146B847D3202146B8472046A9
:1004F0002146B847402528462146B8478D20214649
:10050000B84714202146B84720202146B847022684
:1005100030462146B847A1202146B847C820214689
:10052000B847DA202146B84730462146B8478120EF
:100530002146B847CF202146B847D9202146B847A1
:10054000F1202146B847DB202146B84728462146FE
:10055000B8472E202146B847A4202146B847A620F8
:100560002146B847AF202146B84701F041FCF8BD0D
:100570004C80424081000E0090120A40120520205B
:100580000D190000F0B5364A0020506290628523B4
:1005900013670120040333490C60136410230B60BC
:1005A00082231365304B5365304C9464936C936491
:1005B0002F4B9C639D6B9D639463956B9563D46394
:1005C000D56BD5635C655D6D5D659C659D6D9D6559
:1005D00081259D66DC66DE6EDE661D61254E9E61B0
:1005E0009E699E61546156695661946096689660F2
:1005F0001D645D641D665D66156055601E4E166661
:10060000176E1766D665D76DD765DE63DF6BDF6360
:100610005667566F56671D609565D5621463146BF7
:100620001463D5679D625D609D60144A144B13602E
:1006300013630A46303A134B13600B6012490A6881
:10064000124B13430B6000020A6902430A6110480F
:10065000016A104A11430162016811430160F0BD53
:1006600004804240D0320A408200040081000E0023
:100670008480424081000D0081000C00A0120A40DD
:1006800003B000044180630C90330A400040010431
:1006900028300A4080211000F0B5394A8218394BC1
:1006A000C0183A4D4C790B79002C22D0466F202B84
:1006B00002D00524E70100E0354F2E40002B00D189
:1006C00088273E434667846F2C403C438467446BD5
:1006D0002D4E34404463846B34408463002444656D
:1006E000846554688F26F6433440546094683440DF
:1006F00094600C688979202B09D006467036002B4F
:1007000015D1641E4460C46E2C40882715E0641E19
:100710004460C46E2C401E4E3443C466046F2C40AB
:10072000344304671B4D01246707064607E005278D
:10073000FF0164084460C46E2C403C43C4663468C6
:100740002C403C433460C46A0F4D2C40C462046B9F
:100750002C4004630024C4640465C46F8F25ED43FA
:100760002C40C46714682C401460194302680A4B7B
:100770001340BD220A40D118891C0160F0BDC0465B
:1007800084180000041800008888FDFF24493E00FA
:1007900001040000FFFFFFCF4000FFCFB0B53A4A91
:1007A00080184A6842600A78222A56D8930001A429
:1007B000E3589F46510800005B0800005108000004
:1007C0005B0800005B0800005B0800005B0800009D
:1007D0005B0800005B0800005B0800005B0800008D
:1007E0005B0800005B0800005B0800005B0800007D
:1007F0005B080000410800005B08000041080000A1
:100800005B0800005B0800005B0800005B0800005C
:100810005B0800005B0800005B0800005B0800004C
:100820005B0800005B0800005B0800005B0800003C
:100830005B080000410800005B0800004108000060
:10084000036803242407A343012464071B1903E05E
:10085000036803242407A34303600B69C360CB68C8
:10086000C46A0A4D25400A4C1C402B19C362036818
:10087000084C1C400460097A114302683F239A43E4
:10088000194051180160B0BD041800008888FDFFB0
:10089000777702007F00FFFFF0B585B0354800682C
:1008A000800764D50024E243012533480168CB0565
:1008B000324F10D501943E6837062E4600D51646B5
:1008C000FF1717402E4843680468A41904607B4151
:1008D00043602A4F019C080610D528023E68064056
:1008E000154600D02546002E144600D00124244889
:1008F00043680668341904606B4143600124650352
:10090000C80212D53F682F40104600D00020019049
:10091000002F174600D027461A4843680668F61984
:100920000660019E73414360144F29420FD0200599
:100930003C680440134600D12346002C00D101221C
:10094000104844680568AA1802605C4144600C487D
:1009500002684068039002920A4802684068039067
:10096000029209480140044A10690843106105B029
:10097000F0BDC0463011404038300A4080330A4054
:10098000680420208004202080211000F0B584B06D
:100990003049314A0125AC0316682B0203939E436C
:1009A00016600E68264205D10E68264202D10E68F6
:1009B0002642F6D06C02467E9769AF432E40BD19A1
:1009C00095612025455DD6690327BE433D407519D5
:1009D000D561224D2E680727374005262E60466ACE
:1009E00033681362736853622F60C3695B065B0CE4
:1009F000D5697F263602B543EB18D361E8C8009766
:100A000007680197476802971B071B0B2D03ADB2C0
:100A1000ED1833071B0D007A009E35431D43019BE3
:100A20001D43029B1D43054390690D4B03400D4838
:100A30002840C01890611068039B18431060086834
:100A4000204205D10868204202D108682042F6D031
:100A500004B0F0BD04020B4008010B4000134040FD
:100A60008D00F0FF72FF0F00F0B589B005910E996F
:100A70000791082B01D1062406E05C07D908002C59
:100A800000D0491C5C084C4307994D424D410895E4
:100A900059080091203AD1B202910021E2B20492A9
:100AA000019004460393C8B2049A82423ED9082BAF
:100AB000069104D10621029A5143204A12E0182BD4
:100AC00008D0102B0BD00C2B30D10C21029A5143A3
:100AD000194A07E02421029A5143154A02E002997B
:100AE0000901144A5118081805780027059E072F98
:100AF0000BD8E807089A00D0079AE0B2F1B201F0EB
:100B000099F87F1C761C6D08F1E7641C039B082B89
:100B100009D0E0B20199401A009A904203D1059899
:100B2000083005900C460699491CBCE709B0F0BD99
:100B3000F02100004C2F00003C350000B0390000CF
:100B4000FCB40127FF07794002E0FCB40127FF074E
:100B50000C024D002D0E03D1002C52D1FCBC70476D
:100B60003C43FF2D50D0A408002900D56442020266
:100B700043001B0E04D1002A43D10800FCBC70477F
:100B80003A43FF2B41D09208002800D552425E1B09
:100B900004D5170022003C0076422B00192E06D502
:100BA00027003741D2191C27F71B7F42BC40002A7F
:100BB00027D002D55242012700E00027013B520016
:100BC000FCD51500802635400FD015002026354075
:100BD0002C43803208D21500402635402C4304D1E6
:100BE00001263602B24300E05B1C5200023308DDEE
:100BF000FF2B0BD2500ADB051843FF073843FCBC20
:100C000070470020FCBC70470800C70FFF07FF209B
:100C1000C0053843FCBC7047F0B585B002460120E2
:100C200001070291C007019000212B4E2C4F07298C
:100C300024D850B200280492039108D48120306057
:100C4000244D0298286028633446214E05E034463E
:100C50001F4E2660206820601E4DB847E660E068A1
:100C6000E060B8478120E060019828602863B847B9
:100C70000399491C049A52002646D8E7144C346064
:100C80003068306001F09EFAF460F068F060002790
:100C9000124D01F097FA2C68029804400CD0781C91
:100CA000092F0746F5D38120F060019809490860B3
:100CB000086300F00DFF07E08120F060019805490E
:100CC0000860086301F07EFA6042604105B0F0BD43
:100CD00081000E00A0120A400C80424080130A409E
:100CE000C5210000F0B585B0019000240394029462
:100CF00001F068F82025284E284F282D15D02448CB
:100D00004059C1174018484000F01EFF214900F02B
:100D10009DF9314600F09AF9394600F065FA02A9CA
:100D20004919203908602D1DE7E7029D039E2846DA
:100D30003146FFF70AFF3F21090600F087F900F06E
:100D4000B1FF019F388028463146FFF7F9FEBF21E9
:100D5000090600F07BF9054600F0A4FF78801049F1
:100D6000284600F041FA0F4900F070F900F09AFFB0
:100D7000B88007480078002807D00B48082C04D01A
:100D800002A909590151241DF8E705B0F0BDC0467C
:100D9000B404202000004842C7CB164300000244A0
:100DA0000A171D4300007A4498042020F0B585B04E
:100DB0002848801C00F05CFC012400940026264A90
:100DC0000827264D304631463B46A8470094244A22
:100DD000304639463B46A84700941021214A304608
:100DE0003B46A847009418211F4A304604973B46CB
:100DF000A8470394082E29D00499009101940C204F
:100E000070431830C5B2771C28463A46234600F096
:100E1000E5FA1048801980780094002801D0482213
:100E200000E04C2210212846049C2346FFF71CFEBC
:100E3000F0B201F0B5F802460094039C0194182129
:100E40002846234600F0CAFA3E46D3E700F08AFA65
:100E500005B0F0BD08052020003C0000851B000007
:100E6000093C00000D3C0000113C0000F0B587B0CB
:100E700003900120010705910190C0070490002410
:100E8000264F0294264D022C30D806942149396011
:100E900038683860F960F868F860A84781263E60D5
:100EA00005981D4C20602063A847FE6004982060D0
:100EB0002063A8475620FFF7AFFE00280BD003267B
:100EC0003046FFF7A9FE002807D00398FFF7A4FEDD
:100ED000002803D00DE0012600E0022611484670EC
:100EE000022001F019F9069C641CCCE7029908461F
:100EF00007E000F0EDFD00200A494870012002994A
:100F0000069C084A1070032C019800D3084607B0CD
:100F1000F0BDC04681000E00A0120A400C80424085
:100F2000C521000014052020FEB50446C0690290CA
:100F3000266AE6612068FFF703FE0746A06120628B
:100F40003146FFF7FDFD01902169384600F07EF83B
:100F50000546E068019900F079F82946FFF7F5FDAC
:100F6000054630463146FFF7F0FD01463846FFF7AB
:100F7000E7FD0299FFF7E9FD0146606900F066F8B8
:100F80002946FFF7E2FD0146A068FFF7DEFD0546B2
:100F9000A060084E314600F0E5FA002806D1064E62
:100FA0002846314600F0C0FA002801D0A660354638
:100FB0002846FEBD00005244000052C440B5420025
:100FC0004B005E08164301D006004E4000D4D01AF4
:100FD00004D20120C90F06D1404204E003D9012008
:100FE000C90F00D04042FF263606B24200D8B342B5
:100FF00000D9012040BDC04640B542004B005E080C
:10100000164301D006004E4000D4D01A04D201206D
:10101000C90F06D1404204E003D90120C90F00D016
:101020004042FF263606B24200D8B34201D9012021
:10103000404240BD42004B000020FF2109068A4289
:1010400000D88B4200D9012070477047FCB40127BB
:10105000FF0706004E4001D4002600E03E000202D9
:1010600043001B0E30D03A43FF2B30D00C024D0012
:101070002D0E29D03C43FF2D29D05B194240504012
:1010800042404C4061404C4000B500F099FD20BC0E
:10109000AE464240504042404C4061404C402500EA
:1010A0001400002C01D46400013B803401D30133CF
:1010B00064087E3B08DDFF2B09D2BC43200ADB0518
:1010C00018433043FCBC70470020FCBC7047FF2035
:1010D000C0053043FCBC7047F8B56A4651801080AB
:1010E0001D488178002903D0012000F045FAF8BDA1
:1010F00001210170194C103400256E46022DF6D0E6
:101100000027F25FA02A00DBA022D01711468143FE
:1011100031802088012A0BDB8AB207B23B460A33B2
:10112000934201DA1F4603E00A3F974200DC0F4674
:10113000002804D0380402D1E8B200F0ABFC2780CC
:1011400038B200F001FD0146E8B200F0FDFEA41C3B
:10115000B61C6D1CD2E7C046B404202098042020A1
:10116000F8B51B4C1B49204600F00CFF1A492046DD
:10117000FFF792FA19480168194A0A404921C90142
:1011800051180160012500950026204601F01FF846
:10119000204631462A4600F0E7FE7D20C700204663
:1011A00039462A4600F0DEFF02240094084801F088
:1011B0000EF807483146224600F0D6FE044839466C
:1011C000224600F0CFFF0748856006210160F8BD88
:1011D00000008640573C00004C3C0000041886404C
:1011E0007F00FFFF00118640FCB40127FF070600C7
:1011F0004E40F60FF607020243001B0E2DD03A4375
:10120000FF2B2DD00C024D002D0E26D03C43FF2D80
:1012100026D05B1B0020202164085208A2424041D6
:10122000A24200D3121B013904D0002A01D052007F
:10123000F4D18840384201D14000013B803001D3D5
:10124000013300E040007F3307DDFF2B08D2400A66
:10125000DB0518433043FCBC70470020FCBC7047E2
:10126000FF20C0053043FCBC7047704770B51A487A
:10127000002404600F200002184E316881430125CC
:101280006802081830600320C143321F13680B4006
:1012900013607168A9437160290272688A437260A1
:1012A000000364212A4600F003F90D48FFF76EFBA6
:1012B00030681021014320208143316028033168C8
:1012C00001433160204600F0FFFAFF20000205498B
:1012D0000A6882430A6070BD08030B4004010B409A
:1012E000D83B000000E400E010B5174C1749204639
:1012F00000F01DFF1649204600F09EFA0320C103AE
:10130000144802688A4302600169134A0A40511D69
:10131000016141691B220A4324218A4342614268D8
:1013200001210A4043688B439A1842600B4A1368B4
:101330000B4C1C4314600F221202C3681343C3609A
:1013400002680A43026010BD008010404A3C000061
:10135000403C0000009110400000FFFF289010402A
:1013600001040000F8B50025194F042D2FD02846A0
:101370005038C0B200242146164EB04720462146C0
:10138000B04710202146B04700F006FD1248007813
:10139000002801D1782000E07A2000F0FBFA00F06C
:1013A00065FC402000F0F6FA00F060FC80243E4628
:1013B000002C07D0307800F0EDFA00F057FC361D15
:1013C000641EF5E700F0B0FD7F1C6D1CCDE7F8BD95
:1013D000000020200D19000012052020F0B587B074
:1013E0001C4604AB07C30C9845080390082800D19D
:1013F000AD1C00270D980290F8B2A04221D2F8430C
:101400000019C1B20A26304600F0B4FE0146069823
:1014100000F002FB314600F0FFFA02980090302005
:10142000002902D00A46024300E0024628467843DB
:1014300004994018C0B20599039BFFF715FB7F1C68
:10144000DAE707B0F0BD7047F0B5184A0378401CE2
:101450000024082CFAD00578DE070DD12D0147783D
:101460003E0976190F253D40ED1C122D0AD18578D5
:101470002F0609D4C01C0DE0401C0D70491C641CD3
:101480005B08E6E7801C06E07F273D40C778FF0148
:101490007D19001D1235964207D0F643002DEED07F
:1014A0008F5D0F706D1E491CF8E7F0BDFF0F000047
:1014B000F0B5164B1D46083D2E680124A6432E604C
:1014C0001E6803273F03BE43384030181860186871
:1014D000FF26B043C9B2401818602868204328602E
:1014E0001D68002A0ED00A482102220715431D60FC
:1014F00002680A4205D102680A4202D102680A4221
:10150000F6D0F0BD200785431D60F0BD10010B40F3
:1015100004020B4010B5FFF751FD002801D0002058
:1015200010BD012010BDC04610B5FFF747FD0028D3
:1015300001DB002010BD012010BDC04610B5FFF733
:101540003DFD002801DD002010BD012010BDC0467A
:1015500010B5FFF751FD002801DA002010BD012071
:1015600010BDC04610B5FFF747FD002801DC002084
:1015700010BD012010BDFEE7F8B501210E034D039B
:10158000CC034F040F49104A00280CD01460176098
:101590000E600D607D20C400204600F063FD2046F3
:1015A00000F06EFDF8BD0020009000F05BFD00989B
:1015B00000F066FD044804610761024806610561A8
:1015C000F8BDC04690120A4090320A4070B50C48EF
:1015D0000C4941600C4A51600C4B59600C4C6160E5
:1015E0000C4D69600C4E71600C490160116019600E
:1015F000216029603160102000F0DAFD70BDC04626
:1016000000080A40030000B100280A400008864094
:10161000008886400028864000881040010000268F
:10162000B0B500200C490D4A0D4B50280CD00024B9
:101630000C500D18AC60EB602A616C61AC61EC6120
:101640002C626C622830F0E7064807490022074BFD
:1016500043608260C160B0BD180420206F12033C5B
:101660003333B33EDC042020CDCCCC3DCDCCCC3EBE
:10167000F8B504460025104E104F082D1BD03046FB
:101680001030042D024600D3324601211160AA0712
:10169000024600D5324640231360EA0700D03046A8
:1016A00009040160322000F049FB38688007C00F50
:1016B00060556D1CE1E7F8BD90320A4080330A4066
:1016C000B0B50446002000F0CDFCE1087D20C0004C
:1016D0007D2900D304460121CB0349040A4A002C8A
:1016E0000ED01546103D2B6011600146A03989B21D
:1016F0008C4201D8A034204680B200F0B3FCB0BDCB
:1017000013601160B0BDC046A0320A4010B50C4C49
:101710000C49204600F036FC0B492046FFF73EF806
:101720000A480168012211430160FF2000020849B4
:101730000B6883439003181808600648026010BDC8
:1017400000808640153C0000183C00002890864030
:1017500010E400E00891864010B50C4C0C4920467E
:1017600000F010FC0B492046FFF718F80A48016802
:10177000012211430160FF20000608490B688343E2
:10178000D007181808600648026010BD0020864087
:10179000543C00002C3C00002830864010E400E05F
:1017A0000831864070B51048416802680F494B689F
:1017B0000B6882608B604469D5170669B6180661AC
:1017C000654145614C69DD170E69F6180E6165418A
:1017D0004D61D20F0273DA0F0A7300224260026079
:1017E0004A600A6070BDC046680420208004202042
:1017F000F8B500F087FB04460D49032008610D4849
:1018000006780127314679400170E0B20A25294661
:1018100000F002F9002E01D04543601BC0B200F079
:101820005DFA002E00D0022701480760F8BDC046CF
:1018300090120A401305202070B511221302C2181D
:10184000C4580125AC43C4500C888D7825438C883E
:101850002C43C558084E2E40084D25407419C450DD
:101860008879CB790343087A184351687E239943DA
:1018700018400818506070BDE798FDFF1867000019
:1018800080B5FFF7A3FEFEF77DFEFFF7EFFCFFF745
:1018900067FCFFF73BFFFFF75FFFFFF725FD00F059
:1018A000C5FB00F021FC9C20044900220A54B8200A
:1018B00003490A5403490A5480BDC04678032020D6
:1018C000BC0220200002202010B50E490E4A012340
:1018D0005C0590600868204205D10868204202D16A
:1018E00008682042F6D010681B04034313600868A0
:1018F000C00605D40868C00602D40868C006F6D53C
:1019000010BDC04604020B4004010B40F8B50D4663
:10191000044600F041FA0B480078002801D17820F5
:1019200000E07A20084EB047084FB847681E85414E
:10193000A801B047B8472046B047B84700F0F4FACE
:10194000F8BDC04612052020951900006D1C00004E
:1019500010B50446002000F093FB012210030C494F
:101960000861E3087D20C0007D2B00D304465203AC
:10197000002C0BD00A600146A03989B28C4201D8F4
:10198000A034204680B200F07BFB10BD0A6110BD80
:1019900090120A40F8B50446012005028005009027
:1019A00000270C4E072F13D860B2002802D40098ED
:1019B000306101E000983060306400F0FEFB35607B
:1019C000356400F0FAFB356135647F1C6400E9E79B
:1019D000F8BDC04690120A4010B50D49002088603D
:1019E000C8608880088001228A700A490A4610323D
:1019F000082806D0002313800C18A360921C001D39
:101A0000F6E7022000F046F80120FFF7B5FD10BD13
:101A1000B4042020980420201CB50A0017D000230D
:101A20000124E407A04200D20400944201D95200EC
:101A3000FBE790425B41904200D3801A914201D271
:101A40005208F6E719000200080011001CBD010051
:101A5000002000F0D2F81CBD0A48812101604160DD
:101A60000162416208480160416063204005074906
:101A70000861074A032313600864136308610020A8
:101A800008607047C48042400480424090320A405F
:101A9000A0120A40022817D80CD100200B49502868
:101AA00012D00A18002393609361D36113625362CA
:101AB0002830F4E728214143044840180021816080
:101AC0008161C161016241627047C04618042020F3
:101AD00070B50A4C81202060012000070849086089
:101AE0000863084DA847084EE660E068E060A84734
:101AF000266020682060A84770BDC0460C80424028
:101B0000A0120A40C521000081000E0070B50A48ED
:101B10000A4C84420CD00A4D0A4EB54208D003CD7F
:101B200002789200A258083D401C90470835F4E71F
:101B300000BF00BF70BDC046843C0000783C000080
:101B40008C3C00009C3C000006B49E22002802D47D
:101B500004D106BC7047414204D400E00100013AC0
:101B60004900FCD5803101D3013200E04900490A27
:101B7000D2051143002802D50122D20711430800E3
:101B800006BC7047FEB51E46154602910746082B57
:101B900001D0700800E006200190089C2A781046C9
:101BA0002038C0B25E2809D80094F8B202993346B2
:101BB000FEF75AFF01983F186D1CEFE7FEBD704716
:101BC000FCB4020C0B0CFF242402FF342040214003
:101BD0000C00444315005D4306005E430F0057436D
:101BE000320C3B0CA818C01832043B040025A11885
:101BF0006841C9186841FCBC7047704710B50A4C71
:101C000000206060208009480949C160C268C26044
:101C1000016001680160322000F07EFA5820FFF771
:101C200025F9207010BDC046140520200C804240CC
:101C300081000E0010B543B2002B13D41F2911D818
:101C400007240C400123A340C9088000002A04D0C7
:101C5000054A1018425C1A4303E0034A1018425C1C
:101C60009A43425410BDC04600002020F8B501251B
:101C7000AC05094E3465094FB8472D02356035640F
:101C8000B8473946064807683561356488472740B4
:101C900078427841F8BDC04690120A40BB2100004E
:101CA00080130A4006B54100090E7F390DD41F226A
:101CB000511A0CD9864600020122D2071043C840AF
:101CC0007246002A00D5404206BD002006BD020033
:101CD0000120C007002A00D4401E06BD80B50A219D
:101CE000FFF79AFE080649050143232252050A40E0
:101CF0000121C90601405018632149054140024AAB
:101D00001161106080BDC04690320A4070B50C462B
:101D10007D21CE00B04200DB3046C117884380B23F
:101D200000252946FFF7CCFCB44200DB3446E0171F
:101D30008443A0B22946FFF70BFE70BDB0B5502119
:101D400041430948036800221C4603689C42FCD0BA
:101D500001D9E41A04E0E41A051F2D686419641C13
:101D6000A2188A42F0D3B0BD18E000E080B500F0C0
:101D700019FA07494A68002A05D0821A054B9A4287
:101D800001D2002080BD48602620FFF76FF880BD9B
:101D900014052020DC050000F8B501208405074D5E
:101DA0002C602C6406022E602E64054FB8472C610F
:101DB0002C64B8472E612E64B847F8BD90120A40D3
:101DC000BB21000010B5094C2046103000F0F6F899
:101DD0000720C043002807D021180A6A8B690B62CC
:101DE0009A1A8A62001DF5E710BDC046B40420208F
:101DF00010B50020084904280BD080220B46002A89
:101E000004D000241C701B1D521EF8E7491C401C06
:101E1000F1E7FFF7A7FA10BD00002020B0B50228B7
:101E20000FD808D10020074C50280AD025180C35AF
:101E30000EC52830F8E728244443024800190C3026
:101E40000EC0B0BD1804202080B507480068C0B29D
:101E5000012807D1FFF7A6FCFEF724FA0348016822
:101E60001431016080BDC046209086401C052020B2
:101E7000084880F3088800BF00BF00F0B3F90028CD
:101E800001D0FFF743FE0020FEF71AF9012000F011
:101E9000ABF9C04600802020E0B500200190009002
:101EA000684600F08BF80448012141700099019ABE
:101EB000416082608CBDC046F8042020F8B504461D
:101EC0000026064D082E08D0A719A1592846FFF76D
:101ED0002BF8B8602835361DF4E7F8BD180420202B
:101EE00001204104044A1160044A116004490A684F
:101EF00002430A607047C04680E200E000E100E073
:101F00000498864010B5064804687D20C10020462C
:101F1000FFF782FD03498C4200D96320C0B210BD97
:101F20001C0520209F860100B0B501208405054DC9
:101F30002C612C6400022860286400F03EF92C60BB
:101F40002C64B0BD90120A40022809D803D105487C
:101F50000160283003E028224243024880180160D3
:101F60007047C0461804202010B592008018044A1B
:101F700083580724A404A34321405918815010BD5D
:101F80003018000010B50122120383180C789C60F1
:101F90004B7883508978014A815010BD0C110000A4
:101FA000072801D90020704703490818807849782C
:101FB000411A4842484170470805202004494A69AF
:101FC0000969016003494A69096941607047C0466F
:101FD000680420208004202080B50120C103044A29
:101FE0001160400410607D20C00000F03BF880BD0F
:101FF00090320A4080B501200103044A1160400379
:1020000010607D20C00000F03BF880BD90120A40B7
:1020100010B50446FFF7C0FE2046FFF7BBFCFFF7F4
:1020200025FE0446FFF780FF204610BD0548042129
:1020300001604F21416000218160016805220A434F
:102040000260704710E000E080B5044802210160A2
:1020500003480160FFF744FF80BDC04680E200E016
:1020600000E100E080B57D21C900091A00D20021FD
:102070000248012200F076F880BDC046000086408C
:1020800080B57D21C900091A00D200210248022230
:1020900000F068F880BDC046000086400B4611463F
:1020A0001A4680B500F076F880BDC0460A46002189
:1020B00080B500F06FF880BD10B5029CA400001937
:1020C00011431943014A815010BDC0465018000009
:1020D00080B50020FFF750FA0248016801220A4348
:1020E000026080BD04188640034804490A68024023
:1020F0008242FBD17047C046000B200004020B4017
:1021000080B504480068C0B2012801D1FEF74EFE38
:1021100080BDC0462030864010B50446002C05D056
:102120007D20C000FFF70AFE641EF7E710BD10B562
:102130000122120383180C789C604978815010BDED
:1021400010B500239A4203D0CC5CC4545B1CF9E761
:1021500010BD80B50B4603214258C11D184600F042
:102160003BF880BD92008018014A81507047C046FC
:1021700010180000024601200B0602D05043491EF1
:10218000FAE7704780B50A46032141581046FFF729
:102190008DFF80BD00239A4202D0C1545B1CFAE738
:1021A00070470000014800687047C0461C052020A9
:1021B000811E091F00BFFCD2704780B50420FFF7C5
:1021C000BDFD80BD80B50520FFF7B8FD80BD31465F
:1021D0003246334670E7000080B5FFF7B1FF80BD9F
:1021E00046E670470120704700BFFEE70000000090
:1021F00000000000000000000000000000000000DF
:1022000000000000000000000000000000000000CE
:10221000000000000000000000F0F0F000000000EE
:102220000000000000017F0100000000000000002D
:10223000001C1C1C0000000000008060301C8C6032
:10224000301C0C0000000000000000000000000036
:10225000000000000000000000000000000000E09E
:102260000000000000E000000086E69F868686866B
:10227000E69F860000011F01010101011F0101000D
:10228000000080C06020F820E0C0000000000307CC
:102290000C18FF70E18100000000070F10107F1084
:1022A0000F0700008060206080000000E020000038
:1022B0000F3020309F70DC371030C0000000100E4F
:1022C00003000718101807000000C02020E0C0001D
:1022D0000000000080E01F38E88703C43C040000D1
:1022E000070F1810100B070D1010080000808C4C01
:1022F00038000000000000000000000000000000A6
:1023000000000000000000000000000000000000CD
:1023100000000000000080E0300804000000000021
:1023200000FEFF0100000000000000000000030F9D
:102330001820400000040830E08000000000000089
:102340000000000001FFFE00000000000040201817
:102350000F03000000000000000000000000C000AB
:1023600000000000004266663C18FF183C666642AA
:10237000000000000000030000000000000000005A
:102380000000800000000000001010101010FF106E
:1023900010101010000000000000030000000000FA
:1023A000000000000000000000000000000000002D
:1023B000000000000000000000808C4C380000008D
:1023C000000000000000000000000000000000000D
:1023D000001010101010101010101000000000005D
:1023E00000000000000000000000000000000000ED
:1023F00000000000000000000000000000000000DD
:1024000000001C1C1C000000000000000000000078
:1024100000000000E0380C000000000080701C0389
:10242000000000000060380E010000000000000005
:10243000000080C060202060C080000000FEFF011E
:102440000000000001FFFE000001070E1810101828
:102450000E0701000000808080C0E0000000000046
:102460000000000000FFFF0000000000000010104E
:10247000101F1F101010000000804020202020603E
:10248000C080000000030300804020381F070000C8
:10249000001C1A1918181818181F00000080C020F6
:1024A000202060C080000000000303001010182FDF
:1024B000E780000000070F10101010180F07000031
:1024C000000000000000C0E0F000000000C0B08884
:1024D000868180FFFF808000000000000010101F38
:1024E0001F1010000000E06060606060606000002D
:1024F00000003F1008080818F0E0000000070B106B
:102500001010101C0F030000000080C0402020208D
:10251000E0C0000000FCFF211008080818F0E000EF
:102520000001070C18101010080F03000000C0E095
:102530006060606060E06000000003000000E01880
:102540000700000000000000001F1F000000000046
:102550000080C0602020202060C080000087EF2C19
:102560001818303068CF830000070F0810101010C3
:10257000180F07000000C0C020202020C0800000ED
:10258000001F3F604040402010FFFE0000000C1C78
:10259000101010080F0300000000000000000000F1
:1025A0000000000000000000000E0E0E0000000001
:1025B00000000000001C1C1C0000000000000000C7
:1025C000000000000000000000000000000C0C00F3
:1025D000000000000000000000583800000000006B
:1025E00000000000000000804020100000001028C3
:1025F0004482010000000000000000000000010211
:1026000004081000000000000000000000000000AE
:102610000084848484848484848484000000000092
:1026200000000000000000000000102040800000BA
:10263000000000000000000000000182442810009B
:1026400000001008040201000000000000C020206B
:102650001010101030E0C0000003030000F010085C
:102660000C070300000000001C1C1C000000000000
:10267000000000C0406020202040C00000FCFF019E
:10268000F00E03C1FE03807F0001070E0811111038
:10269000110904020000000080E0E00000000000DA
:1026A0000000807C4340477FF880000010181F1016
:1026B00000000000131F1C1020E0E02020202060FC
:1026C000C080000000FFFF10101010182FE78000DE
:1026D000101F1F1010101010180F0700000080C0EE
:1026E000402020202060E00000FCFF0100000000EE
:1026F000000001000001070E18101010080403006C
:1027000020E0E02020202040C080000000FFFF00EB
:102710000000000001FFFE00101F1F10101018081D
:102720000E07010020E0E020202020202060800013
:1027300000FFFF101010107C00000000101F1F1081
:10274000101010101018060020E0E020202020209B
:102750006060800000FFFF101010107C000001007E
:10276000101F1F100000000000000000000080C0CB
:102770006020202040E0000000FCFF0100004040FD
:10278000C0C140400001070E181010100F0F0000CC
:1027900020E0E0200000000020E0E02000FFFF102B
:1027A0001010101010FFFF00101F1F10000000007D
:1027B000101F1F100000202020E0E020202000003B
:1027C0000000000000FFFF000000000000001010EB
:1027D000101F1F101010000000000000202020E03B
:1027E000E020202000000000000000FFFF000000AB
:1027F0000060E0808080C07F3F00000020E0E0209B
:10280000000020A06020200000FFFF30187CE3C003
:1028100000000000101F1F10000001131F1C1810E3
:1028200020E0E020000000000000000000FFFF00AA
:102830000000000000000000101F1F1010101010FA
:102840001018060020E0E0E000000000E0E0E020DA
:1028500000FF013FFEC0E01E01FFFF00101F10003F
:10286000031F0300101F1F1020E0E0C00000000045
:102870000020E02000FF0003071C78E08000FF003C
:10288000101F100000000000030F1F00000080C098
:1028900060202060C080000000FEFF0100000000FA
:1028A00000FFFE000001070E181010180C070100B1
:1028B00020E0E0202020202060C0800000FFFF20DA
:1028C00020202020301F0F00101F1F1000000000CC
:1028D00000000000000080C060202060C080000078
:1028E00000FEFF010000000000FFFE000001070ED7
:1028F0001111133C7C67210020E0E02020202020E3
:1029000060C0800000FFFF101030F0D0080F0700FB
:10291000101F1F10000000030F1C10100080C0606B
:10292000202020204040E00000070F0C1818303015
:1029300060E08100001F0C0810101010180F070035
:102940008060202020E0E020202060800100000046
:1029500000FFFF000000000100000000101F1F101A
:102960000000000020E0E020000000000020E02047
:1029700000FFFF00000000000000FF0000070F182C
:1029800010101010100807002060E0E02000000088
:1029900020E060200000077FF88000807C030000BA
:1029A00000000000071F1C070000000020E0E020DE
:1029B00000E0E0200020E0200007FFF8E01FFFFC1F
:1029C000E01F00000000031F0300011F03000000C0
:1029D000002060E0A0000020E06020000000000374
:1029E0008F7CF8C6010000000010181E13000117AC
:1029F0001F1810002060E0E02000000020E06020B0
:102A0000000001073EF8E018070000000000001079
:102A1000101F1F101000000000806020202020A048
:102A2000E0E0200000000000C0F03E0F03000000C6
:102A300000101C1F171010101018060000000000D6
:102A400000FC0404040404000000000000FF000077
:102A50000000000000000000007F404040404000B7
:102A6000000010E000000000000000000000000076
:102A7000031C608000000000000000000000000354
:102A80000C70800000000404040404FC000000003A
:102A900000000000000000FF0000000000004040B7
:102AA0004040407F0000000000000010080C040CB3
:102AB00008100000000000000000000000000000FE
:102AC0000000000000000000000000000000000006
:102AD00000000000000000000000000000000000F6
:102AE00000000000808080808080808080808080E6
:102AF00000000004040808000000000000000000BE
:102B000000000000000000000000000000000000C5
:102B100000000000000000000000000000000000B5
:102B2000000098D844642424FCF80000000F1F180B
:102B3000101010081F1F10180020E0F00000000007
:102B4000000000000000FFFF180804040CF8F0006B
:102B500000001F0F18101010180F030000000000D5
:102B6000000000000000000000E0F8180404043C2D
:102B70003800000000030F0C1010101008060000B1
:102B80000000000000000020E0F0000000E0F81C61
:102B900004040408FFFF000000030F1810101008C1
:102BA0001F0F0800000000000000000000000000EF
:102BB0000000E0F8484444444C7870000000030FE3
:102BC0000C181010100804000000000080C06020E5
:102BD00020E0C00000040404FFFF0404040400001B
:102BE000000010101F1F1010100000000000000057
:102BF0000000000000000000000070F88C04048C4D
:102C0000F874040C007076CF8D8D8D89C8787000B3
:102C10000020E0F000000000000000000000FFFFC6
:102C200008040404FCF8000000101F1F100000102E
:102C30001F1F100000000000006060000000000086
:102C40000000040404FCFC00000000000000101060
:102C5000101F1F1010100000000000000000006096
:102C60006000000000000000040404FCFC00000000
:102C70000000C0C08080C07F3F0000000020E0F066
:102C800000000000000000000000FFFF80C0F41CF6
:102C90000404000000101F1F1100031F1C1010006F
:102CA0000000202020E0F0000000000000000000F4
:102CB00000FFFF000000000000001010101F1F1098
:102CC00010100000000000000000000000000000E4
:102CD00004FCFC0804FCFC0804FCFC00101F1F1092
:102CE000001F1F10001F1F10000000000000000048
:102CF000000000000004FCFC08080404FCF80000CC
:102D000000101F1F100000101F1F10000000000007
:102D1000000000000000000000E0F0180C04040CAB
:102D200018F0E00000030F0C101010100C0F03003F
:102D30000000000000000000000000000004FCFC97
:102D4000080404040CF8F0000080FFFF88901010C5
:102D50001C0F030000000000000000000000000045
:102D600000E0F81C04040408F8FC000000030F183D
:102D700010109088FFFF800000000000000000009D
:102D800000000000040404FCFC100804040C0C0007
:102D90001010101F1F101010000000000000000095
:102DA000000000000000000000003078CCC48484E3
:102DB000840C1C0000001E1810101011190F0600C2
:102DC0000000000000C00000000000000004040437
:102DD000FFFF040404000000000000000F1F10109B
:102DE000100C0000000000000000000000000000C7
:102DF0000004FCFE00000004FCFE000000000F1FA9
:102E0000181010081F0F080000000000000000004C
:102E10000000000000040C3CFCC40000C43C0C0496
:102E200000000000010F1E0E010000000000000065
:102E30000000000000000000043CFCC400E47CFC36
:102E400084807C040000071F070000071F070000A4
:102E50000000000000000000000000000004041C4E
:102E60007CE4C0341C0404000010101C1601131F65
:102E70001C1810000000000000000000000000000E
:102E800000040C3CFCC400C43C0404000000C080EE
:102E9000C1370E010000000000000000000000002B
:102EA0000000000000001C0404C4F47C1C040000AA
:102EB0000000101C1F17111010180E000000000059
:102EC000000000F80C04000000000000001028EFD3
:102ED00000000000000000000000003F6040000013
:102EE000000000000000FF000000000000000000E3
:102EF0000000FF0000000000000000000000FF00D4
:102F0000000000000000040CF800000000000000B9
:102F100000000000EF2810000000000000004060EA
:102F20003F00000000000000001806020204081024
:102F30002020300800000000000000000000000019
:102F40000000000000000000000000000000000081
:102F5000000000000000000000000000000000F879
:102F600000000000000000333000000000100C06DC
:102F7000100C0600000000000000000040C0784077
:102F8000C0784000043F04043F040400007088FC43
:102F900008300000001820FF211E0000F008F0009B
:102FA000E018000000211C031E211E0000F008880C
:102FB000700000001E2123241927211010160E0076
:102FC000000000000000000000000000000000E021
:102FD0001804020000000007182040000002041836
:102FE000E00000000040201807000000404080F092
:102FF000804040000202010F01020200000000F0C8
:10300000000000000101011F01010100000000009B
:103010000000000080B07000000000000000000010
:103020000000000000010101010101010000000099
:103030000000000000303000000000000000000030
:1030400080601804006018060100000000E010080D
:103050000810E000000F102020100F00001010F8E2
:10306000000000000020203F202000000070080821
:1030700008887000003028242221300000300888A1
:10308000884830000018202020110E000000C020C9
:1030900010F8000000070424243F240000F80888EA
:1030A000880808000019212020110E0000E0108877
:1030B00088180000000F112020110E0000380808A9
:1030C000C83808000000003F0000000000708808B9
:1030D00008887000001C222121221C0000E010083A
:1030E0000810E0000000312222110F00000000C093
:1030F000C000000000000030300000000000008030
:10310000000000000000806000000000000080401F
:103110002010080000010204081020004040404038
:10312000404040000404040404040400000810208B
:1031300040800000002010080402010000704808D0
:103140000808F0000000003036010000C030C82838
:10315000E810E0000718272423140B000000C038F3
:10316000E0000000203C23020227382008F888886D
:1031700088700000203F202020110E00C030080879
:1031800008083800071820202010080008F8080850
:103190000810E000203F202020100F0008F8888849
:1031A000E8081000203F20202320180008F8888815
:1031B000E8081000203F200003000000C03008088D
:1031C0000838000007182020221E020008F8080016
:1031D0000008F808203F210101213F20000808F8DD
:1031E000080800000020203F202000000000080800
:1031F000F8080800C08080807F00000008F888C0C0
:1032000028180800203F20012638200008F8080070
:1032100000000000203F20202020300008F8F800A7
:10322000F8F80800203F003F003F200008F830C0B9
:103230000008F808203F200007183F00E0100808A9
:103240000810E0000F10202020100F0008F80808D8
:103250000808F000203F210101010000E0100808EB
:103260000810E0000F18242438504F0008F8888810
:1032700088887000203F2000030C302000708808F0
:10328000080838000038202121221C00180808F8FE
:10329000080818000000203F2000000008F808007F
:1032A0000008F808001F202020201F000878880050
:1032B00000C83808000007380E010000F80800F8C0
:1032C0000008F800033C0700073C0300081868806A
:1032D0008068180820302C03032C30200838C800E0
:1032E000C83808000000203F20000000100808082F
:1032F000C83808002038262120201800000000FED1
:10330000020202000000007F40404000000C30C07C
:1033100000000000000000010638C00000020202A8
:10332000FE000000004040407F000000000004025A
:103330000202040000000000000000000000000085
:103340000000000080808080808080800002020475
:10335000000000000000000000000000000080806D
:10336000808000000019242222223F2008F80080DB
:1033700080000000003F112020110E00000000809E
:1033800080800000000E112020201100000000802D
:103390008088F800000E112020103F20000080805F
:1033A00080800000001F222222221300008080F073
:1033B000888888180020203F20200000000080809E
:1033C00080808000006B94949493600008F80080E3
:1033D00080800000203F210000203F20008098983E
:1033E000000000000020203F20200000000000809E
:1033F0009898000000C08080807F000008F80000DE
:1034000080808000203F24022D302000000808F832
:10341000000000000020203F2020000080808080ED
:1034200080808000203F20003F20003F808000807F
:1034300080800000203F210000203F20000080808D
:1034400080800000001F202020201F00808000803E
:103450008000000080FFA12020110E0000000080ED
:1034600080808000000E112020A0FF8080808000DE
:103470008080800020203F2120000100000080800B
:10348000808080000033242424241900008080E000
:10349000808000000000001F2020000080800000CD
:1034A00000808000001F202020103F2080808000AE
:1034B0000080808000010E300806010080800080BE
:1034C000008080800F300C030C300F0000808000E3
:1034D000808080000020312E0E312000808080000E
:1034E0000080808080818E701806010000808080BE
:1034F000808080000021302C22213000000000005C
:10350000807C020200000000003F404000000000FC
:10351000FF00000000000000FF0000000002027C2D
:10352000800000000040403F000000000006010154
:10353000020204040000000000000000000000007F
:1035400000000000000000000000FC00000000007F
:1035500002000000000C020C02000000000000004D
:1035600090D0BCD0BC900003000300001824FE449F
:103570008C000302070201001824D8B04C8000031D
:1035800000010201C038E438E00001020201020239
:10359000080600000000000000000000000000F825
:1035A0000402000000010204000204F8000000040C
:1035B000020100009060F86090000000010000002F
:1035C0002020FC202000000001000000000000007E
:1035D000000008060000000020202020200000003D
:1035E00000000000000000000000000200000000D9
:1035F0000080601C0200040300000000F8040404C2
:10360000F8000102020201000008FC0000000002B4
:10361000030200001884442418000302020202007E
:1036200008042424D80001020202010040B088FCF2
:1036300080000000000302003C242424C400010296
:1036400002020100F824242CC00001020202010041
:103650000C04E41C0400000003000000D82424240F
:10366000D80001020202010038444444F80000037B
:103670000202010000001000000000000200000033
:10368000000020000000000006000000002050881C
:103690000402000000000102909090909000000051
:1036A0000000000000020488502000020100000019
:1036B0001804C4241800000002000000F804E49478
:1036C000F80001020202020000E09CF08000020308
:1036D0000000030204FC2424D800020302020100BB
:1036E000F80404040C0001020202010004FC0404BA
:1036F000F80002030202010004FC24740C0002031F
:103700000202030004FC24740C0002030200000007
:10371000F0080444CC4000010202010004FC202017
:10372000FC040203000003020404FC04040002027F
:1037300003020200000404FC040406040403000065
:1037400004FC24D00C0402030200030204FC040065
:103750000000020302020203FC3CC03CFC00030028
:103760000300030004FC30C4FC0402030200030055
:10377000F8040404F80001020202010004FC2424FD
:103780001800020302000000F8848404F80001021B
:103790000207050004FC24649800020302000302EF
:1037A000182424448C000302020201000C04FC04CF
:1037B0000C0000020302000004FC0000FC040001F5
:1037C00002020100047C80E01C04000003000000F1
:1037D0001CE03CE01C00000300030000049C609C13
:1037E0000400020300030200041CE01C04000002A9
:1037F000030200000C84641C0400020302020300A4
:103800000000FE020200000007040400000E30C0A9
:103810000000000000010200000202FE000000049F
:103820000407000000040204000000000000000083
:103830000000000000000808080808080000020056
:1038400000000000000000000040A0A0C000000137
:103850000202030204FC2020C00000030202010057
:1038600000C02020600000010202020000C02024ED
:10387000FC0000010202030200C0A0A0C000000181
:10388000020202000020F8242404000203020200C5
:103890000040A0A0602000070A0A0A0404FC2020BF
:1038A000C0000203020003020020E4000000000246
:1038B00003020000000020E40000080808070000E0
:1038C00004FC80E020200203020003020404FC0048
:1038D0000000020203020200E020E020C00003001A
:1038E0000300030020E02020C000020302000302C6
:1038F00000C02020C00000010202010020E02020C2
:10390000C000080F0A02010000C02020E0000001F2
:10391000020A0F0820E040202000020302000000FD
:103920000060A0A020000002020203000020F82096
:10393000000000000102020020E00020E000000181
:103940000202030220E0208060200000030100004A
:103950006080E08060000003000300002060806061
:10396000200002030003020020E0208060200808FD
:10397000070100000020A0602000000203020200F6
:10398000000020DE0200000000070400000000FF2D
:1039900000000000000F00000002DE200000000414
:1039A0000700000002010204040200000000000001
:1039B0000000000000000000002F000000000700D1
:1039C000070000147F147F1400242A7F2A1200624B
:1039D00064081323003649552250000005030000F7
:1039E00000001C224100000041221C000014083E7F
:1039F00008140008083E0808000000A06000000845
:103A00000808080800006060000000201008040298
:103A1000003E5149453E0000427F40000042615156
:103A20004946002141454B31001814127F100027F0
:103A300045454539003C4A494930000171090503B3
:103A400000364949493600064949291E00003636E4
:103A50000000000056360000000814224100001447
:103A60001414141400004122140800020151090624
:103A700000324959513E007C1211127C007F4949A5
:103A80004936003E41414122007F4141221C007FD6
:103A900049494941007F09090901003E4149497AE4
:103AA000007F0808087F0000417F4100002040415E
:103AB0003F01007F08142241007F40404040007FCA
:103AC000020C027F007F0408107F003E4141413E0E
:103AD000007F09090906003E4151215E007F091956
:103AE00029460046494949310001017F0101003F53
:103AF0004040403F001F2040201F003F4038403FD3
:103B00000063140814630007087008070061514936
:103B1000454300007F41410000552A552A550000C9
:103B200041417F0000040201020400404040404047
:103B3000000001020400002054545478007F4844DF
:103B4000443800384444442000384444487F003816
:103B50005454541800087E0901020018A4A4A47C3F
:103B6000007F080404780000447D40000040808409
:103B70007D00007F102844000000417F4000007C51
:103B800004180478007C080404780038444444385D
:103B900000FC242424180018242418FC007C0804A9
:103BA000040800485454542000043F444020003C82
:103BB0004040207C001C2040201C003C4030403C09
:103BC000004428102844001CA0A0A07C0044645499
:103BD0004C441414141414140100000000000000DC
:103BE00000000000000000000000000010000000C5
:103BF0000001000007000000010000002C00C4418B
:103C000045696768742049520043483A004C563A67
:103C100000424B3A00080709020000001F4E000056
:103C20000000000000000000000000000200000092
:103C30009F0F0000000000000000000000000000D6
:103C4000000018000000003000000803E803000036
:103C50000001000008077C080100000000000000CF
:103C600000BD00000F19CDCCCC3E00743D02037F97
:103C70000B01055F04FFF000491400005321000010
:103C80008521000002000000B2040000603C00003A
:103C9000B4042020843C000000002020000000002C
:0400000300001E716A
:00000001FF
